:020000040C00EE
:100000000088FE1F010200089902000899020008FA
:1000100099020008990200089902000800000000F7
:10002000000000000000000000000000990200082D
:1000300099020008000000009902000845380008F5
:100040009902000899020008990200089902000824
:100050009902000899020008990200089902000814
:1000600099020008000000000000000000000000ED
:100070009902000800000000990200089902000897
:1000800099020008990200089902000899020008E4
:1000900099020008990200089902000899020008D4
:1000A00099020008990200089902000899020008C4
:1000B00099020008990200089902000899020008B4
:1000C00099020008990200089902000899020008A4
:1000D0009902000899020008990200089902000894
:1000E0009902000899020008990200089902000884
:1000F0009902000899020008990200089902000874
:100100009902000899020008990200089902000863
:100110009902000899020008990200089902000853
:100120009902000889D10008990200089902000884
:100130009902000899020008990200089902000833
:100140009902000899020008990200089902000823
:100150009902000899020008990200089902000813
:10016000000000000000000000000000000000008F
:1001700099020008990200089902000899020008F3
:1001800099020008990200089902000899020008E3
:1001900099020008990200089902000899020008D3
:1001A0009902000899020008ED310008490D000885
:1001B00099020008990200089902000899020008B3
:1001C00099020008990200089902000899020008A3
:1001D0009902000899020008990200080000000036
:1001E0009902000899020008990200089902000883
:1001F000AD510008990200089902000800000000B3
:10020000DFF874D01D4880471D4C1E4DAC4209DA02
:1002100021686268A368043BA2BFC858D050FAE7BF
:100220000C34F3E7184B194CA34208DA19685A68E2
:100230000020043AA4BF8850FBE70833F4E71448D1
:100240008047144880470000D818010C0088FE1F22
:10025000AC010000D818010C0088FE1F000000004F
:10026000B089FE1FCC7500000000002000000000D7
:1002700000000020A03000000088FE1F9D02000842
:1002800048020008600200086002000878020008C6
:1002900079E90008C9D10008FEE7000098B500AF71
:1002A000054A4FF0005314460FCB84E80F000CF0C2
:1002B0006FFE0CF0EBFE98BDC4FF032080B584B048
:1002C00000AF2F4BDB6803F48033002B3ED02D4B67
:1002D000DB6803F00103002B02D02B4BFB6002E034
:1002E0000CF0B6FEF860274B1B6803F00403002BEC
:1002F00020D0244B9B6803F070631B0E0133BB605E
:10030000204B9B6803F4FE431B0A01337B601D4BAB
:100310009B6803F4FE031B0C01333B60BB683A6827
:1003200002FB03F3FA68B2FBF3F37A6802FB03F310
:10033000FB600DE0134B9B6803F07F0301333B60D0
:10034000FA683B68B2FBF3F3FB6001E00E4BFB6025
:100350000B4BDB68DBB20133FA68B2FBF3F3FB60F3
:10036000074B1B6903F001030133FA68B2FBF3F397
:10037000FB60064AFB6813601037BD4680BD00BFB6
:10038000004600501047005000366E01C0FF0320A9
:1003900080B483B000AF78600B46FB70FB7801221D
:1003A0009A407B685A600C37BD465DF8047B704705
:1003B00080B483B000AF78600B46FB70FB784FF4DD
:1003C00080329A407B685A600C37BD465DF8047BEA
:1003D000704700BF80B483B000AF78607B684FF493
:1003E0008042C3F818210C37BD465DF8047B704786
:1003F00080B483B000AF78607B68D3F8143103F029
:100400000803002B14BF01230023DBB218460C376E
:10041000BD465DF8047B704780B582B000AF786060
:100420007B681B68184602F0C9F80346184608376F
:10043000BD4680BD80B582B000AF78607B681B6828
:100440001846FFF7D5FF034618460837BD4680BD5E
:1004500080B485B000AF78600023FB6003E000BF8C
:10046000FB680133FB60FA687B689A42F7D3143764
:10047000BD465DF8047B7047B0B584B000AFF8604E
:10048000B960C7E90023BB68D3E90045FB681B6876
:1004900018460DF02DFF02460B4610461946D7E9C7
:1004A00000230DF079FF02460B46204629460DF049
:1004B000C1FD02460B46B968C1E900231037BD46AD
:1004C000B0BD00BF0000000080B500AF0E480F496E
:1004D00009A3D3E90023FFF7CFFF0D480D4908A377
:1004E000D3E90023FFF7C8FF07480B4902A3D3E96C
:1004F0000023FFF7C1FF80BDFCA9F1D24D6270BFA0
:10050000FCA9F1D24D62703F248CFE1F288DFE1F86
:10051000988CFE1F688CFE1F708CFE1FAFF300804E
:100520002DE9B0438CB000AFAF4B1B680133AE4A2E
:100530001360AE4B93ED007AAC4BD3ED007A27EE0F
:10054000277AAB4BD3ED006AA94BD3ED007A66EE68
:10055000A77A77EE277A17EE900A0DF0C9FE0246C9
:100560000B46104619460DF017FCC7E90A01D7E9FA
:100570000A014FF000024FF000030EF09DF9034610
:10058000002B35D09B4B1B6818460DF0B1FE024680
:100590000B4610461946D7E90A230EF027F8024603
:1005A0000B46104619460DF053FAC7E90801924B65
:1005B000D3E900231046194687A3D3E900230DF0A1
:1005C000EBFE02460B4690469946D7E9080184A304
:1005D000D3E900230DF0E0FE02460B4640464946B3
:1005E0000DF028FD02460B468349C1E900230EE0C9
:1005F000814BD3E900231046194677A3D3E90023A2
:100600000DF0CAFE02460B467B49C1E90023784B38
:1006100093ED007A764BD3ED007A27EE277A754B6F
:10062000D3ED006A734BD3ED007A66EEA77A77EECE
:10063000277A17EE900A0DF05BFE02460B46104635
:1006400019460DF0A9FBC7E90601D7E906014FF0ED
:1006500000024FF000030EF02FF90346002B35D0B7
:10066000624B1B6818460DF043FE02460B461046CF
:100670001946D7E906230DF0B9FF02460B4610468E
:1006800019460DF0E5F9C7E904015C4BD3E90023F5
:100690001046194650A3D3E900230DF07DFE024613
:1006A0000B4690469946D7E904014DA3D3E90023B0
:1006B0000DF072FE02460B46404649460DF0BAFC6C
:1006C00002460B464D49C1E900230EE04B4BD3E9EE
:1006D00000231046194640A3D3E900230DF05CFE29
:1006E00002460B464549C1E90023424B93ED007A8F
:1006F000404BD3ED007A27EE277A3C4BD3ED006ACE
:100700003A4BD3ED007A66EEA77A77EE277A17EEAA
:10071000900A0DF0EDFD02460B46104619460DF00D
:100720003BFBC7E90201D7E902014FF000024FF09D
:1007300000030EF0C1F80346002B35D02C4B1B688C
:1007400018460DF0D5FD02460B4610461946D7E96E
:1007500002230DF04BFF02460B46104619460DF0E2
:1007600077F9C7E90001264BD3E900231046194663
:1007700019A3D3E900230DF00FFE02460B461446E1
:100780001D46D7E9000116A3D3E900230DF004FEAE
:1007900002460B46204629460DF04CFC02460B460D
:1007A0001749C1E9002311E0154BD3E90023104696
:1007B000194609A3D3E900230DF0EEFD02460B46CE
:1007C000144683F000450E4BC3E900453037BD4663
:1007D000BDE8B083AFF300809A9999999999E93F60
:1007E0009A9999999999C93FE88CFE1F088CFE1F28
:1007F000008EFE1F088DFE1F288DFE1F688CFE1FB9
:10080000708CFE1FAFF3008080B500AF154B5B68A6
:100810001B681B681348194603F080F9124806212B
:10082000802201F0E7FD11480621802201F0E2FD5F
:100830004FF49170FFF70CFE0B480621FFF7A8FD5F
:100840000A480621FFF7A4FD064800F019FA0848F7
:10085000002104220EF0E1F80648002104220EF0E7
:10086000DCF880BD8088FE1F0082024800850248B7
:10087000388CFE1F488CFE1F80B582B000AF4FF44D
:1008800002433B80BA4800F0FBF9BA480621FFF763
:100890008FFD3B46B6481946B74A042303F094F946
:1008A000B4480621FFF774FDB14800F0E9F9B348F8
:1008B0000621FFF77DFD3B46AD481946B04A0423AB
:1008C00003F082F9AD480621FFF762FDAD4BAA4A5D
:1008D0001A60AD4BAA4A1A60AA4B1B6803331B78F7
:1008E0001B029BB21BB2A74A1268127813431B115A
:1008F000FB80A44B1B6805331B781B029BB21BB209
:10090000A04A12680232127813431B11BB809D4B20
:100910001B6807331B781B029BB21BB2994A1268F3
:100920000432127813431B117B80B7F9063007EEAF
:10093000903AF8EEE77A9FED957A67EE877AF1EED6
:10094000677A17EE903A18460DF0D2FC02460B4635
:100950001046194680A3D3E900230DF01DFD024681
:100960000B46104619460DF0B1FF0246884B1A603F
:10097000B7F9043007EE903AF8EEE77A9FED837A04
:1009800067EE877A17EE900A0DF0B2FC02460B462E
:100990001046194670A3D3E900230DF0FDFC024672
:1009A0000B46104619460DF091FF0246794B1A602E
:1009B000B7F9023007EE903AF8EEE77A9FED737AD6
:1009C00067EE877AF1EE677A17EE903A18460DF0E7
:1009D0008FFC02460B46104619465FA3D3E900235D
:1009E0000DF0DAFC02460B46104619460DF06EFF7C
:1009F0000246694B1A60664B1B6818460DF078FC7E
:100A000002460B461046194655A3D3E900230DF0C4
:100A1000C3FC02460B46104619460DF057FF02462E
:100A20005E4B1A605B4B1B6818460DF061FC02467A
:100A30000B46104619464AA3D3E900230DF0ACFC3F
:100A400002460B46104619460DF040FF0246544B35
:100A50001A60514B1B6818460DF04AFC02460B46C3
:100A6000104619463EA3D3E900230DF095FC02463B
:100A70000B46104619460DF029FF0246494B1A60F5
:100A8000464B1B6818460DF033FC02460B464649A0
:100A9000C1E90023424B1B6818460DF029FC0246B1
:100AA0000B464249C1E900233E4B1B6818460DF036
:100AB0001FFC02460B463E49C1E90023324B1B682E
:100AC00003331B781B029AB22F4B1B681B789BB217
:100AD00013439AB2374B1A802B4B1B6805331B7894
:100AE0001B029AB2284B1B6802331B789BB213433C
:100AF0009AB2314B1A80244B1B6807331B781B02B8
:100B00009AB2214B1B6804331B789BB213439AB2F1
:100B10002A4B1A80274B1B881BB207EE903AF8EE3F
:100B2000E77A9FED277A67EE877AF1EE677A17EE1C
:100B3000903A18460DF0DCFB02460B46104619466B
:100B400009A3D3E900230DF027FC02460B4610460B
:100B5000194637E0AFF300805C8FC2F5285CEF3FA9
:100B600005A3923A019D2340399D52A246DF913F51
:100B70008088FE1F00820248388CFE1F00850248D4
:100B8000488CFE1F288CFE1F208CFE1F0000803A20
:100B9000088DFE1F088CFE1F008EFE1F1C8CFE1F82
:100BA000808BFE1F888CFE1F008CFE1F208DFE1F79
:100BB000F88DFE1FF08DFE1F188CFE1FF88CFE1F97
:100BC000F4017A3D0DF082FE0246274B1A60274B56
:100BD0001B881BB207EE903AF8EEE77A9FED247A75
:100BE00067EE877A17EE900A0DF082FB02460B46FD
:100BF000104619461AA3D3E900230DF0CDFB024697
:100C00000B46104619460DF061FE0246194B1A605C
:100C1000194B1B881BB207EE903AF8EEE77A9FED6E
:100C2000147A67EE877AF1EE677A17EE903A1846F3
:100C30000DF05EFB02460B461046194608A3D3E9A9
:100C400000230DF0A9FB02460B46104619460DF095
:100C50003DFE0246094B1A600837BD4680BD00BF05
:100C6000399D52A246DF913F988CFE1F188CFE1FC3
:100C7000F4017A3D248CFE1FF88CFE1FF48DFE1FBC
:100C800080B582B000AF78607B681B681846FFF7BC
:100C9000A1FB02E07868FFF7BFFB7868FFF7CAFBAB
:100CA000034683F00103DBB2002BF3D10837BD46C6
:100CB00080BD00BF80B400AF034B044A1A60BD463C
:100CC0005DF8047B704700BFFC8EFE1F64140108B2
:100CD00080B483B000AF144B1B687B60134B1B6860
:100CE000114A1360114A7B6813600F4B1B68104A4E
:100CF00013600D4B1B680F4A13600B4B1B68C73307
:100D00000D4A1360094B1B680C4A1360074B1B68A4
:100D10000B4A1360054B1B68C7330A4A13600C3734
:100D2000BD465DF8047B7047048FFE1FF88EFE1FE2
:100D3000DC8FFE1FF48EFE1F208EFE1F088FFE1F0D
:100D4000148EFE1F188EFE1F80B500AF1F4B1B6850
:100D50001F481946012202F017F81E4B1B681E4A55
:100D6000126813441A78194B1B681B789A421AD1DF
:100D7000194B1B680133184A1360144B1B6801336D
:100D8000124A1360144B1B68072B1DD1FFF7A0FFFD
:100D9000124B1B680D4A13600F4B00221A60104B58
:100DA00001221A7010E00C4B1B68052B07DC0B4B63
:100DB0001B68064A1360084B00221A6004E0034BCC
:100DC0001B680133014A136080BD00BFF48EFE1F13
:100DD0000088FE1FFC8EFE1FD88FFE1FDC8FFE1FBB
:100DE000108EFE1F80B500AF044B054A1A600BF051
:100DF000FDFE0246034B1A6080BD00BF2C8CFE1F17
:100E0000C0A80009188DFE1F2DE9B04F96B010AF95
:100E100078607B6893ED004B7B68D3E902457B6883
:100E2000D3E904897B6893ED065B7B6893ED086BDF
:100E30007B6893ED0A7B7B68D3E90CAB7B68D3E9D5
:100E40000E017B68D3E91023CDE90045CDE9028985
:100E50008DED045B8DED066B8DED087BCDE90AAB66
:100E6000CDE90C01CDE90E231C481D4953EC142B90
:100E70000EF092FA19480EF0B3FA03469BB23820EE
:100E800019464FF4207206F02BFB78617B695C6891
:100E900012480EF0A5FA0346204610491A4604F0FF
:100EA000A7F97B695B683B610E4B1B681846796943
:100EB0000D4A4CF620430BF0FBFC0346FB7397F9FD
:100EC0000F30002B02D109480EF014FA786906F0B1
:100ED00023FD1837BD46BDE8B08F00BF848BFE1FD1
:100EE0006C140108188DFE1F2C8CFE1F8C14010839
:100EF0002DE9B04F96B010AF78607B6893ED004B52
:100F00007B68D3E902457B68D3E904897B6893ED6C
:100F1000065B7B6893ED086B7B6893ED0A7B7B68CF
:100F2000D3E90CAB7B68D3E90E017B68D3E91023CE
:100F3000CDE90045CDE902898DED045B8DED066BB1
:100F40008DED087BCDE90AABCDE90C01CDE90E238F
:100F50001C481D4953EC142B0EF01EFA19480EF0D4
:100F60003FFA03469BB2382019464FF4207206F030
:100F7000B7FA78617B695C6812480EF031FA034673
:100F8000204610491A4604F033F97B695B683B61DF
:100F90000E4B1B68184679690D4A4CF620430BF03E
:100FA00087FC0346FB7397F90F30002B02D10948E9
:100FB0000EF0A0F9786906F0AFFC1837BD46BDE821
:100FC000B08F00BF888DFE1F90140108188DFE1F82
:100FD0002C8CFE1F8C14010880B586B000AF7860A1
:100FE00078680EF0FDF90346FB82FB8A382019462B
:100FF0004FF4207206F074FA38613B695A68FB8A34
:10100000104679681A4604F0F3F83B695B68FB60A8
:101010000B4B1B68184639690A4A4CF620430BF003
:1010200047FC0346FB7297F90B30002B02D10648B0
:101030000EF060F9386906F06FFC1837BD4680BDC8
:10104000188DFE1F2C8CFE1F8C14010880B485B0F7
:1010500000AFF8600B467A60FB72FB7A9B08DBB24C
:101060001846FB7A9B08DBB21A46FB68043253F839
:101070002220FB7A03F00303DB001946F8238B40A0
:10108000DB4302EA0301FB68021D43F82210FB6800
:101090005A6FFB7A5B00194603238B40DB431A40EF
:1010A000FB685A67FB683A4A934203D0FB68394AA7
:1010B00093420AD1FB681A6EFB7A012101FA03F30D
:1010C000DB431A40FB681A6642E07B681B78DBB2A0
:1010D0005BB2002B3CDA7B685A68FB7A9A40FB686B
:1010E0005A60FB7ADB08DBB21846FB7ADB08DBB21E
:1010F0001A46FB68103253F82220FB7A03F00703EC
:101100009B00194607238B40DB4302EA0301FB687F
:1011100000F1100243F82210FB7ADB08DBB218461C
:10112000FB7ADB08DBB21A46FB68103253F8222048
:101130007B681B7A1946FB7A03F007039B0001FAD0
:1011400003F342EA0301FB6800F1100243F82210A6
:10115000FB7A9B08DBB21846FB7A9B08DBB21A4687
:10116000FB68043253F822207B681B781946FB7A0F
:1011700003F00303DB0001FA03F342EA0301FB6817
:10118000021D43F822101437BD465DF8047B7047FA
:10119000008E0248008F024880B400AF034B1B68EA
:1011A0001846BD465DF8047B704700BFC0FF0320B2
:1011B00080B400AF034BD3F8C4301846BD465DF889
:1011C000047B70470040005080B584B000AF786069
:1011D000FFF774F80B4B1B680B4AA2FB03239A0C16
:1011E0007B6802FB03F37B600023FB6003E000BF2E
:1011F000FB680133FB60FA687B689A42F7D31037CB
:10120000BD4680BDC0FF032083DE1B4380B400AF1A
:10121000034B5B681846BD465DF8047B704700BF12
:101220007440005080B483B000AF7860034A7B689C
:10123000D3600C37BD465DF8047B704774400050A6
:10124000B0B584B002AF7860002000F0BFF800F0C5
:10125000A5FA7B68DB79002B0AD000F0DDFA00BF2D
:1012600000F0C8FA034683F00103DBB2002BF7D18C
:101270007B685B7A184600F023F900BFFFF798FF00
:101280000346002BFAD17B681B7A184600F060FAFF
:101290007B681B7C184600F031F97B685B7C184644
:1012A00000F054F97B689B7C184600F03BF97B68A2
:1012B000DB7C184600F05EF97B689B79002B0AD036
:1012C00000F0E2FA00BF00F007FB034683F00103E1
:1012D000DBB2002BF7D17B68DB78002B02D100F06A
:1012E0001FFB14E000F00CFB7B6899887B68DA78C0
:1012F0007B685B781D467B681B781C467B689B7807
:101300000093084611462A46234600F019FB7B68E5
:10131000DB68B3F5803F03D14FF4803000F056F81E
:10132000FEF7CCFF0837BD46B0BD00BF80B485B026
:1013300000AF78607B681B0FFB607B6823F0704315
:10134000BB60FA6813465B0013449B001A46044BCB
:101350001344BA681A601437BD465DF8047B7047C1
:101360001444005080B485B000AF78607B681B0FD8
:10137000FB607B6823F07043BB60FA6813465B0038
:1013800013449B001A46084B13441A68BB68134069
:10139000002B14BF01230023DBB218461437BD46CF
:1013A0005DF8047B704700BF0C44005080B500AF6F
:1013B000FFF7F2FE0246044B5B6903F0010322FAD9
:1013C00003F3184680BD00BF0046005080B483B0D0
:1013D00000AF78600649064BDB6823F480327B68F7
:1013E0001343CB600C37BD465DF8047B704700BFEC
:1013F0000046005080B483B000AF78600649064BC9
:101400009B6923F480327B6813438B610C37BD46A4
:101410005DF8047B704700BF0046005080B483B085
:1014200000AF78600649064B5B6A23F440327B6864
:1014300013434B620C37BD465DF8047B704700BF19
:101440000046005080B483B000AF0346FB80FB88A9
:10145000002B08D10A4A0A4BDB6823F4807323F07F
:101460000103D36007E0064A054BDB6843F4807351
:1014700043F00103D3600C37BD465DF8047B704731
:101480001047005080B483B000AF0346FB7100BF2B
:10149000094BD3F8C43003F00803002BF8D10749F7
:1014A000064BDB6823F04002FB791343CB600C371B
:1014B000BD465DF8047B704700400050004300507B
:1014C00080B483B000AF0346FB7100BF094BD3F873
:1014D000C43003F00803002BF8D10749064BDB6842
:1014E00023F08002FB791343CB600C37BD465DF8D7
:1014F000047B7047004000500043005080B483B02C
:1015000000AF78600649064BDB6823F0FF027B687A
:10151000013B1343CB600C37BD465DF8047B70473D
:101520000046005080B483B000AF78600649064B97
:101530001B6A23F001027B68013B13430B620C37EB
:10154000BD465DF8047B70470046005080B483B010
:1015500000AF78600649064B1B6923F001027B68E7
:10156000013B13430B610C37BD465DF8047B7047AC
:101570000046005080B483B000AF78600649064B47
:101580005B6923F001027B68013B13434B610C371D
:10159000BD465DF8047B70470046005080B483B0C0
:1015A00000AF78600649064B9B6923F007027B6811
:1015B000013B13438B610C37BD465DF8047B7047DC
:1015C0000046005080B483B000AF78600649064BF7
:1015D000DB6923F03F027B68013B1343CB610C378F
:1015E000BD465DF8047B70470046005080B483B070
:1015F00000AF78600649064B5B6A23F0FF027B6808
:10160000013B13434B620C37BD465DF8047B7047CA
:101610000046005080B483B000AF78600649064BA6
:101620009B6B23F003027B68013B13438B630C37F6
:10163000BD465DF8047B70470046005080B483B01F
:1016400000AF0346FB71044AFB7953600C37BD467B
:101650005DF8047B704700BF0046005080B485B041
:1016600000AF78607B681B0FFB607B6823F07043E2
:10167000BB60FA6813465B0013449B001A46044B98
:101680001344BA681A601437BD465DF8047B70478E
:101690004846005080B485B000AF78607B681B0F6F
:1016A000FB607B6823F07043BB60FA6813465B0005
:1016B00013449B001A46084B13441A68BB68134036
:1016C000002B14BF01230023DBB218461437BD469C
:1016D0005DF8047B704700BF4046005080B483B083
:1016E00000AF78603960194A184B5B6943F0010319
:1016F0005361164A154B5B6943F01003536113495C
:101700003B68013B1A027B68013B1B0613434B619C
:101710000E4A0E4B5B6943F0400353610B4A0B4B7F
:101720005B6923F010035361084A084B5B6943F47B
:101730008023536100BF054B1B6903F00403002B9A
:10174000F9D00C37BD465DF8047B70471047005058
:1017500080B582B000AF0346FB710F4A0E4B5B6849
:1017600043F480135360FB79012B0ED10A4A0A4BD4
:101770005B6823F4801353606420FFF725FD064A5D
:10178000054B5B6843F4002353606420FFF71CFDA6
:101790000837BD4680BD00BF1047005080B400AF81
:1017A000124B1B6803F00103002B09D10F4B0122E0
:1017B0005A6000BF0D4B1B6803F00103002BF9D0EA
:1017C0000B4B1B6803F40073002B0AD0084B4FF43B
:1017D00000729A6000BF064B1B6803F40073002B75
:1017E000F9D1BD465DF8047B704700BF0042005050
:1017F0000044005080B400AF064B1B6803F00803A0
:10180000002B0CBF01230023DBB21846BD465DF858
:10181000047B70470043005080B500AF4FF40000D8
:10182000FFF700FD174A174BDB6923F03003D36144
:1018300000BFFFF7EBFC034603F40003002BF8D0D6
:101840004FF40030FFF7EEFC0E4B08225A6000BF49
:10185000FFF7DCFC034603F40033002BF8D04FF411
:101860000020FFF7DFFC074A064BDB6843F0080364
:10187000D36000BFFFF7CAFC034603F40023002B2C
:10188000F8D080BD00430050B0B500AF0F4A0F4BF9
:101890005B6823F4803353600D4D0D4B5B6823F47C
:1018A000702424F030040BF0D3FB0246094BA3FB59
:1018B00002231B0D013B1B0423436B60034A034BB4
:1018C0005B6823F400335360B0BD00BF1047005085
:1018D000004700506BCA5F6B80B400AF074B1B68BA
:1018E00003F46073B3F5607F0CBF01230023DBB208
:1018F0001846BD465DF8047B704700BF1047005096
:1019000080B400AF054A054B5B6823F4803323F0B5
:1019100002035360BD465DF8047B704710470050DA
:1019200080B400AF054A054B5B6843F4803343F055
:1019300002035360BD465DF8047B704710470050BA
:1019400080B586B000AFBA607B600346FB810B4672
:101950007B73FB891846FFF775FD7B7B012B40F0FD
:101960008480FB89002B09D10BF072FB02464B4BA4
:10197000A3FB02239B0C9B057B6102E04FF0C0633D
:101980007B617B697A6802FB03F2BB68B2FBF3F30D
:101990007B617B69424AA2FB03231B099B0D3B61D0
:1019A000404A404B5B6843F0010353603D4A3D4B66
:1019B0005B6843F0100353603A493A4B9A683A4BDC
:1019C00013407A68013A12021A433B69013B1B0437
:1019D0001A43BB68013B1B0613438B60314A314BF2
:1019E0005B6843F0400353602E4A2E4B5B6823F044
:1019F000100353602B4A2B4B5B6843F480235360E6
:101A000000BF284B1B6803F00403002BF9D0254AC4
:101A1000244B5B6823F00103536000BF214B1B681C
:101A200003F00103002BF9D17B69204AA2FB0323B9
:101A30005B099B0D3B613A6A3B699A4202D2386965
:101A400000F038F87B695B08194AA2FB03235B09A5
:101A50009B0D3B613A6A3B699A4202D2386900F0B9
:101A600029F8386A00F026F815E00E490D4B9B68FE
:101A700023F07F023B6A013B13438B60094A094B09
:101A80005B6843F00103536000BF064B1B6803F023
:101A90000103002BF9D01837BD4680BD83DE1B4300
:101AA000ABAAAAAA10470050FF8080F089888888D6
:101AB000B7600BB680B582B000AF78600749074BBE
:101AC0009B6823F4FE027B68013B1B0413438B607D
:101AD0003220FFF779FB0837BD4680BD1047005024
:101AE00080B483B000AF78607B684FF48072DA60B6
:101AF0000C37BD465DF8047B704700BF80B582B0EF
:101B000000AF78607B68104A934203D10420FFF74E
:101B10000DFC16E07B680D4A934203D10820FFF7C5
:101B200005FC0EE07B680A4A934203D11020FFF7C0
:101B3000FDFB06E07B68074A934202D10648FFF7A7
:101B4000F5FB0837BD4680BD00C0004000000140E5
:101B500000400140004000480100001080B582B004
:101B600000AF78607B68104A934203D10420FFF7EE
:101B700075FD16E07B680D4A934203D10820FFF7FC
:101B80006DFD0EE07B680A4A934203D11020FFF7F7
:101B900065FD06E07B68074A934202D10648FFF7DD
:101BA0005DFD0837BD4680BD00C00040000001401B
:101BB00000400140004000480100001080B582B0A4
:101BC00000AF78601020FFF739FD7868FFF7C6FF97
:101BD0007868FFF793FF0837BD4680BD80B584B0B5
:101BE00000AF78600B46FB707868FFF7E7FF786816
:101BF000FFF776FF7B681B68FB60FB6823F44043BC
:101C0000FB60FB789B03FA681343FB607B68FA6810
:101C10001A601037BD4680BD80B483B000AF7860D5
:101C200039603B681A687B685A613B685B79C3F32B
:101C30004013DBB21A057B685A603B681B79C3F31B
:101C40000303DBB21A467B685A623B685B79C3F3D5
:101C50000303DBB21A467B681A623B685B79C3F305
:101C60000013DBB21A467B689A613B681B79C3F3A9
:101C70000313DBB21A467B68DA620C37BD465DF8A7
:101C8000047B704780B487B000AF78600B46FB7070
:101C90001346BB707B68D3F8A830FB60FB78092B38
:101CA0002CD801A252F823F0D11C0008D11C000846
:101CB000DB1C0008DB1C0008FD1C0008FD1C0008E4
:101CC000FD1C0008FD1C0008E51C0008F11C0008B4
:101CD00003233B6100237B6116E00C233B6102235D
:101CE0007B6111E04FF440733B6108237B610BE0A3
:101CF0004FF440633B610A237B6105E04FF440539E
:101D00003B610C237B6100BF3B69DB43FA681340F6
:101D1000FB60BA787B6902FA03F3FA681343FB604D
:101D20007B68FA68C3F8A8201C37BD465DF8047BC1
:101D3000704700BF80B483B000AF78607B681B68D9
:101D40007A68126802F58052126842F0010203F5C7
:101D500080531A6000BF7B681B6803F580531B68C3
:101D600003F00103002BF6D10C37BD465DF8047B70
:101D7000704700BF80B400AF064B1A68064B1B6962
:101D800003F0010302FA03F31846BD465DF8047B35
:101D9000704700BFC0FF03200046005080B500AF71
:101DA000FFF7E8FF03465B08184680BD80B483B0A8
:101DB00000AF78607A6844F245031340002B14BFEB
:101DC00001230023DBB218460C37BD465DF8047BC7
:101DD000704700BF80B483B000AF78607A6842F289
:101DE000BA731340002B14BF01230023DBB2184643
:101DF0000C37BD465DF8047B704700BF80B582B0EC
:101E000000AF78607868FFF795FF7B681B684FF438
:101E100080621A607B681B6880229A617B681B68FD
:101E200003F580531833194A1A607B681B6803F561
:101E30008053174A1A60786800F02CF8786800F030
:101E400081F87B681B6803F5805314334FF0FF3231
:101E50001A607B681B686FF07C42C3F810217B68B6
:101E60001B686FF07C42C3F80C217B681B686FF025
:101E7000C022C3F800227B681B684FF40272DA6349
:101E80007B6800221A620837BD4680BD040020022C
:101E90008020010280B485B000AF78600023FB6031
:101EA00037E07B681A69FB685B0113444FF000421E
:101EB0001A607B681A69FB685B01134444F2F452B0
:101EC0005A607B681A69FB685B0113447A68916900
:101ED000FA6840F2F45000FB02F20A449A60FB6890
:101EE0000133BB607B6893F824301A46BB689A4282
:101EF00001D10023BB607B681A69FB685B01134456
:101F00007A681169BA6852010A44DA60FB680133E1
:101F1000FB607B6893F824301A46FB689A42C0D86D
:101F20007B681B687A68126903F580530C331A606A
:101F30007B68002283F827201437BD465DF8047BB8
:101F4000704700BF80B485B000AF78600023FB60AD
:101F50002EE07B685A69FB685B011344204A1A60D3
:101F60007B685A69FB685B0113447A68D169FA6837
:101F700040F2F45000FB02F20A449A60FB6801331D
:101F8000BB607B6893F825301A46BB689A4201D142
:101F90000023BB607B685A69FB685B0113447A6865
:101FA0005169BA6852010A44DA60FB680133FB6088
:101FB0007B6893F825301A46FB689A42C9D87B683B
:101FC0001B687A68526903F5805310331A607B6886
:101FD000002283F826201437BD465DF8047B704745
:101FE0000000103080B485B000AF78600023FB6043
:101FF0007B681A697B6893F827305B0113441B6880
:10200000BB60BB68002B02DA0023FB6018E0BB68F2
:1020100003F40043002B09D1BB6803F40073002BC9
:1020200004D0BB6803F48073002B03D14FF0FF335F
:10203000FB6005E0BA68064B13401B0C043BFB60D9
:10204000FB6818461437BD465DF8047B704700BF37
:102050000000FF3F80B586B000AF7860FFF79EFEBE
:1020600038610023FB757B681B681033FB603B699C
:102070001A4A934203D8FB6808221A6029E03B6998
:10208000174A934203D8FB680C221A6021E03B698F
:10209000144A934203D8FB6800221A6019E03B6996
:1020A000114A934203D8FB6804221A6011E03B698D
:1020B0000E4A934203D8FB6810221A6009E03B697C
:1020C0000B4A934203D8FB6814221A6001E00223F2
:1020D000FB75FB7D18461837BD4680BDC00E160245
:1020E0000087930300E1F50580D1F00800C2EB0BF7
:1020F00080B2E60E80B582B000AF78600420FFF7B2
:102100009DFA0448FFF7AAFA0248FFF70FF90837CB
:10211000BD4680BD0400002080B487B000AFF860E9
:102120007B600B46FB721346BB72FB681B68FA6848
:102130001268126902F03C01FA7AD2021143BA7AAB
:1021400092010A4342F001021A6100237B61FB689D
:102150001B681B6903F00103002B07D1FB681B6898
:102160005B699AB27B681A80002308E07B690133BF
:102170007B617B694FF6FE729342E8D902231846D1
:102180001C37BD465DF8047B704700BF80B485B046
:1021900000AF7860084611461A460346FB700B46AE
:1021A000BB7013463B807B681B683A885A617B682A
:1021B0001B687A681268126902F03C01FA78D20250
:1021C0001143BA7892010A4342F003021A610023D4
:1021D000FB607B681B681B6903F00103002B01D1C6
:1021E000002308E0FB680133FB60FB684FF6FE72DA
:1021F0009342EED9022318461437BD465DF8047B9E
:10220000704700BF80B582B000AF786039607B68EE
:102210001B687A681268D16B3A68120CD2430A4084
:10222000DA633B68C3F30E033B603868FFF7BEFD1B
:102230000346002B03D03B6843F480333B6038688F
:10224000FFF7C8FD0346002B03D03B6843F400436F
:102250003B607B6819687B681B6803F580531C33FF
:102260001A683B681A4301F580531C331A6008371B
:10227000BD4680BD80B483B000AF786039607B68B4
:102280001B687A681268D16B3A68120C0A43DA63E9
:102290003B68C3F30E033B607B6819687B681B686F
:1022A00003F580531C331A683B68DB431A4001F581
:1022B00080531C331A600C37BD465DF8047B7047B1
:1022C00080B483B000AF786039607B681B6803F529
:1022D000805314331B6803F48033002B03D03B6816
:1022E00043F480333B607B681B6803F580531433F1
:1022F0001B6803F40043002B03D03B6843F4004306
:102300003B607B681B683A68C2F3100203F5805398
:1023100014331A600C37BD465DF8047B704700BF6C
:1023200080B483B000AF78607B681A697B6893F8EB
:1023300027305B0113447A6811697A6892F8272084
:1023400052010A44126842F000421A607B6893F816
:1023500027300133DAB27B6883F827207B6893F853
:1023600027207B6893F824309A4203D17B680022AF
:1023700083F827200C37BD465DF8047B704700BF0B
:1023800080B483B000AF78607B6893F826207B68C8
:1023900083F828207B685A697B6893F826305B01B4
:1023A0001A447B6859697B6893F826305B010B44BB
:1023B0001B6843F0004343F4400313607B6893F8C9
:1023C00026300133DAB27B6883F826207B6893F8E5
:1023D00026207B6893F825309A4203D17B6800223F
:1023E00083F826207B6800221A620C37BD465DF810
:1023F000047B704780B483B000AF78600B46FB70FD
:102400001346BB70FB789B08DBB21846FB789B0831
:10241000DBB21A467B68043253F82220FB7803F0C3
:102420000303DB001946F8238B40DB4302EA030178
:102430007B68021D43F82210FB789B08DBB218462C
:10244000FB789B08DBB21A467B68043253F82220E3
:10245000BB78F97801F00301C9008B4042EA03011F
:102460007B68021D43F822100C37BD465DF8047BE3
:10247000704700BF80B483B000AF78600B46FB703C
:102480001346BB707B685A6FFB785B0019460323C9
:102490008B40DB431A407B685A677B685A6FBB7876
:1024A000F97849008B401A437B685A670C37BD4660
:1024B0005DF8047B704700BF80B483B000AF7860E4
:1024C0007B689B6BDBB223F07F03DBB218460C37D3
:1024D000BD465DF8047B704780B483B000AF786080
:1024E0000B46FB707B681B6C23F00F02FB781A43D2
:1024F0007B681A640C37BD465DF8047B704700BFEB
:1025000080B582B000AF78603960786800F04CF92F
:102510003B685B79002B12D13B681B79002B07D0FD
:102520003B681B6878681946022200F0F9F906E05A
:102530003B681B6878681946022200F081F97B68C5
:102540000E4A5A637B684FF4A2629A633B685B79D8
:10255000002B07D13B689B7943F00B03DBB21A4693
:102560007B68DA637B684FF0FF32DA643B681B8973
:102570001A467B681A640837BD4680BD02013F07D2
:1025800080B584B000AF786039600123FB73FEF73B
:102590000DFF03465A083B689A4209D378683968A8
:1025A000022200F04DF90346002B01D10023FB73FA
:1025B000FB7B18461037BD4680BD00BF80B485B098
:1025C00000AF78607B68D3F80C3103F0E063002B38
:1025D00003D17B685B6DFB8103E07B68D3F81C3122
:1025E000FB81FB8918461437BD465DF8047B7047B4
:1025F00080B584B000AF78600023FB737868FFF784
:102600005BFF0346DBB25BB2002B02DA0223FB73F3
:1026100003E078680021FFF75FFFFB7B1846103767
:10262000BD4680BD80B483B000AF78607B689B6B93
:10263000DBB223F07F03DBB218460C37BD465DF8F2
:10264000047B704780B483B000AF786039607B68EA
:102650003A68DA640C37BD465DF8047B704700BF0A
:1026600080B584B000AF786039601023FB60786873
:1026700000F09AF83B681B7A002B02D03B681B7A6B
:10268000FB603B681B79002B09D03B681B681A462E
:10269000FB68786811461A4600F042F906E03B688C
:1026A0001B6878681946FA6800F0CAF83B68DB795D
:1026B000013B5A00FB685B0801331B02134343F4E0
:1026C000403343F001037A68D3633B685B79013B95
:1026D0001B0643F481727B685A633B689B79002B2D
:1026E00009D07B685A6B3B689B79013B1B041A43FA
:1026F0007B685A6308E07B685A6B3B685B79013BF7
:102700001B041A437B685A637B684FF4A0629A6388
:102710007B684FF0FF32DA643B685B891A467B685E
:102720001A641037BD4680BD80B582B000AF7860B6
:102730000B467B807B68D3F8083103F0E063002B05
:1027400010D100BF7868FFF76DFF0346802BF9D0EA
:1027500078684FF40051FFF775FF7A887B68C3F8FB
:10276000802003E07A887B68C3F880210837BD4663
:1027700080BD00BF80B485B000AF78607B68D3F8BF
:102780000C3103F0E063002B03D17B685B6DFB81B0
:1027900003E07B68D3F81C31FB81FB8918461437B2
:1027A000BD465DF8047B704780B582B000AF7860AD
:1027B0007B681A4A934203D07B68194A934203D13B
:1027C000184800F09BF916E07B68174A934203D043
:1027D0007B68164A934203D1154800F08FF90AE04E
:1027E0007B68144A934203D07B68134A934202D118
:1027F000124800F083F97B680322DA6000BF7B682F
:10280000DB6803F00103002BF9D07B681B6C23F01D
:102810000F027B681A640837BD4680BD0000034084
:102820000002034008000340000002480002024882
:10283000080002480040024800420248084002489E
:1028400080B58EB000AFF860B9607A60BB68632B6A
:1028500058D97B68002B55D0FEF7A8FD02462E4BB9
:10286000A3FB02235B093B62BB682B4AA2FB032349
:102870005B09BB600123FB620123BB6240F2FF33B3
:102880007B6240F2FF333B6322E03B6A3A6B02FB20
:1028900003F2BB68796801FB03F3B2FBF3F3FB615E
:1028A000FB699B0ABB61FB69C3F309037B61BB69DD
:1028B000B3F5806F09D27A697B6A9A4205D27B6947
:1028C0007B62BB69BB623B6BFB623B6B013B3B6367
:1028D0003B6B002BD9D1FB6A43F40042FB681A61C1
:1028E000FB685A690D4B13407A68013A92021A4309
:1028F000BB6A013B1B041A43FB685A61002387F83B
:10290000373002E0012387F8373097F83730184620
:102910003837BD4680BD00BF1F85EB51EF8000FCFE
:1029200080B58CB000AFF860B9607A60FEF73EFD0C
:1029300003463B62BB687A6802FB03F3FB61012339
:10294000FB623A6AFB699A425FDD3A6AFB6992FB75
:10295000F3F3BB6210E0FB6A0133FB62BB687A6889
:1029600002FB03F31A46FB6A03FB02F3FB613A6ABC
:10297000FB6992FBF3F3BB62BB6A40F2FE32934207
:10298000E9D83A6A7B68B96A01FB03F3F96A01FB8B
:1029900003F3B2FBF3F3BB613A6ABB6A01337968B4
:1029A00001FB03F3F96A01FB03F3B2FBF3F37B6171
:1029B000BA687B69D31A83EAE372A2EBE372B9685F
:1029C000BB69CB1A002BB8BF5B429A4202DABB6AE2
:1029D0000133BB62BB6AC3F58063BB62BB6A43F46D
:1029E0008042FB681A61FB685A690C4B13407A6895
:1029F000013A92021A43FB6A013B1B041A43FB682B
:102A00005A61002387F8273002E0012387F8273036
:102A100097F8273018463037BD4680BDEF8000FC60
:102A200080B485B000AFF860B9603B601346FB71BD
:102A3000FB68D3F8083123F0E062FB68C3F8082193
:102A4000FB68D3F80821094B13403A681102BA68B1
:102A50001143FA7912060A431A43FB68C3F80821A6
:102A60001437BD465DF8047B704700BFC0C0FFF857
:102A700080B485B000AFF860B9603B601346FB716D
:102A8000FB68D3F80C3123F0E062FB68C3F80C213B
:102A9000FB68D3F80C210A4B13403A681102BA685C
:102AA0001143FA7912060A43134343F08052FB683C
:102AB000C3F80C211437BD465DF8047B704700BF96
:102AC000C0C0FFEF80B485B000AFF8600B467A60FD
:102AD000FB72FB689A69FB7A072101FA03F3DB4377
:102AE0001A40FB7A796801FA03F31A43FB689A618A
:102AF0001437BD465DF8047B704700BF80B582B0D7
:102B000000AF78607B68284A934218D14FF4006088
:102B1000FEF7A4FD00BF4FF40060FEF7BBFD0346C7
:102B2000002BF8D14FF40060FEF700FC00BF4FF41B
:102B30000060FEF717FC0346002BF8D130E07B68FD
:102B40001A4A934214D11A48FEF788FD00BF18486C
:102B5000FEF7A0FD0346002BF9D11548FEF7E6FB72
:102B600000BF1348FEF7FEFB0346002BF9D117E028
:102B70007B68104A934213D10F48FEF76FFD00BFE8
:102B80000D48FEF787FD0346002BF9D10A48FEF7F2
:102B9000CDFB00BF0848FEF7E5FB0346002BF9D14B
:102BA0000837BD4680BD00BF08000340080002484A
:102BB00080000010084002480001001080B584B079
:102BC00000AF7860144B1B68002B02D1124B134AE4
:102BD0001A60114B1B68FB607B68033323F003030F
:102BE0007B600D4B1A687B6813440D4A934207D2F1
:102BF000094B1A687B681344074A1360FB6806E0B8
:102C00000BF0B4FE02460C2313604FF0FF3318465E
:102C10001037BD4680BD00BFB089FE1FA030002028
:102C2000C0FF032080B400AFBD465DF8047B704751
:102C300080B483B000AF786039607B681A6C3B6801
:102C4000DB431A407B681A640C37BD465DF8047B91
:102C5000704700BF80B483B000AF78607B689B6B27
:102C6000DBB223F07F03DBB218460C37BD465DF8BC
:102C7000047B704780B483B000AF786039607B68B4
:102C8000D3F808213B68DB431A407B68C3F808216E
:102C90000C37BD465DF8047B704700BF80B483B03D
:102CA00000AF78607B68D3F8143103F48053002BB5
:102CB00014BF01230023DBB218460C37BD465DF874
:102CC000047B704780B483B000AF78607B68D3F832
:102CD000143103F40063002B14BF01230023DBB283
:102CE00018460C37BD465DF8047B704780B483B04E
:102CF00000AF78607B684FF48042C3F818210C372E
:102D0000BD465DF8047B704780B483B000AF786047
:102D10007B68D3F8143103F00803002B14BF0123A0
:102D20000023DBB218460C37BD465DF8047B7047C4
:102D300080B483B000AF78607B689B6C18460C371A
:102D4000BD465DF8047B704780B483B000AF786007
:102D500039607B683A68DA640C37BD465DF8047BFD
:102D6000704700BF80B584B000AF78600023FB736C
:102D70007B685B685B6898470346FB73FB7B184680
:102D80001037BD4680BD00BF80B586B000AFF8608B
:102D9000B9607A600423FB75FB685B6893F82630A2
:102DA000022B00D007E0F868B9687A6800F008F8EC
:102DB0000346FB7500BFFB7D18461837BD4680BD36
:102DC00090B589B000AFF860B9607A600323FB77F3
:102DD000BB68002B60D07B68002B5DD00223FB77A3
:102DE000FB689B685B7EDBB283F00103DBB2002BE8
:102DF00052D0FB689B6801225A76FB685B6893F8A7
:102E00002830002B04D0FB681B681846FFF76EFFC4
:102E10000023BB6136E0FB685B6893F82830002B29
:102E200009D000BFFB681B681846FFF76DFF03461B
:102E3000002BF7D118E0FB681B681846FFF778FFF6
:102E4000786105E0FB681B681846FFF771FF786141
:102E50007B6903F44043002BF4D0FB681B681846E1
:102E60004FF44041FFF770FFBA68BB69D418FB68A4
:102E70001B681846FFF77EFC0346DBB22370BB6974
:102E80000133BB61BA697B689A42C4D30023FB77E4
:102E9000FB689B6800225A76FB7F18462437BD46A4
:102EA00090BD00BF80B584B000AF78607B689B6840
:102EB000FB60FB68DA68FB689B689A4240D27B68DB
:102EC0005B6893F82730002B27D01AE0FB68DA689C
:102ED000FB689B689A4212D27B681968FB681A6883
:102EE000FB68DB6813441B789BB208461946FFF762
:102EF0001BFCFB68DB685A1CFB68DA6001E000BF62
:102F000053E07B681B681846FFF7C8FE034683F052
:102F10000103DBB2002BD9D147E07B681968FB685D
:102F20001A68FB68DB6813441B789BB20846194695
:102F3000FFF7FAFBFB68DB685A1CFB68DA6034E0D9
:102F40007B681B681846FFF7BDFE0346002B2CD09C
:102F50007B685B6893F82730002B07D07B681B6881
:102F600018464FF08041FFF785FE06E07B681B683E
:102F700018464FF40051FFF75BFE00BF7B681B68EB
:102F80001846FFF767FE0346802BF7D0FB68002248
:102F90001A76FB6800221A607B685B689B68002BCE
:102FA00003D07B685B689B6898471037BD4680BD3F
:102FB00080B400AF044BDB6803F4E0631B0A1846DF
:102FC000BD465DF8047B704700ED00E080B483B03F
:102FD00000AF0346FB7197F90730002B0BDB084964
:102FE00097F907305B09FA7902F01F02012000FA15
:102FF00002F241F823200C37BD465DF8047B704790
:1030000000E100E080B483B000AF03463960FB719B
:1030100097F90730002B0ADB0D4997F907303A681A
:10302000D2B29200D2B20B4483F800230AE00949DD
:10303000FB7903F00F03043B3A68D2B29200D2B29C
:103040000B441A760C37BD465DF8047B704700BF11
:1030500000E100E000ED00E080B489B000AFF8606E
:10306000B9607A60FB6803F00703FB61FB69C3F199
:103070000703062B28BF0623BB61FB690633062B1B
:1030800002D9FB69013B00E000237B61BB6901229F
:1030900002FA03F35A1EBB681A407B699A407B69A7
:1030A000012101FA03F3591E7B680B4013431846B4
:1030B0002437BD465DF8047B704700BF80B483B001
:1030C00000AF78600B46FB701346BB70F878FB7856
:1030D0007A6806339B0013445B6823F00702BB78D1
:1030E0001A437968831D9B000B445A600C37BD4618
:1030F0005DF8047B704700BF80B483B000AF786098
:1031000039607B681A6C3B681A437B681A640C3719
:10311000BD465DF8047B704780B483B000AF786033
:103120007B681B6C23F00F0343F002027B681A6478
:103130000C37BD465DF8047B704700BF80B582B098
:1031400000AF0023FB71234B9B6800221A76214BB2
:103150009B6800225A7620480421204AFDF776FF1A
:103160001F482049FFF77CFA1D4800210022FFF785
:10317000A5FF1B48FFF7D0FF174805211A4AFDF7A6
:1031800065FF174804210022FFF79CFC1448082122
:103190000122FFF797FC12484FF48041FFF7ACFF84
:1031A0000F4810210222FFF78DFCFFF701FF0346B5
:1031B00018463F210022FFF74FFF03465A201946C9
:1031C000FFF720FF5A20FFF701FFFB791846083769
:1031D000BD4680BD0088FE1F00800248041501081E
:1031E00000000248B4140108C014010880B500AF03
:1031F0000148FFF757FE80BD0088FE1F80B483B0F2
:1032000000AF78600B46FB70FB7801229A407B6828
:10321000DA600C37BD465DF8047B704780B483B03C
:1032200000AF78607B680122DA600C37BD465DF83C
:10323000047B704780B483B000AF78607B68022263
:103240001A610C37BD465DF8047B704780B483B0CB
:1032500000AF78600B467B807A887B685A630C37B6
:10326000BD465DF8047B704780B483B000AF7860E2
:103270000B467B807A887B68DA630C37BD465DF845
:10328000047B704780B483B000AF786039607B689E
:103290003A681A610C37BD465DF8047B704700BF81
:1032A00080B483B000AF78600B46FB707B68D3F8C6
:1032B000A420FB78012101FA03F31A437B68C3F8C9
:1032C000A4200C37BD465DF8047B704780B584B000
:1032D00000AF78600023FB737B6893F8263083F09F
:1032E0000103DBB2002B09D07B6893F82130002B5F
:1032F00004D1786800F008F80346FB73FB7B18469E
:103300001037BD4680BD00BF80B584B000AF786087
:103310007B681B69184601F057FA0346FB737B680C
:103320001B699A687B681B7E10461946FFF766FF8B
:103330007B685A697B68DB6910461946FEF76CFCAE
:10334000786800F02DF87B6893F82530002B0FD0BB
:103350007B685A697B6893F82030104600211A4632
:10336000FEF790FC7B685B6918460021FFF798FF29
:103370007B685B691846FFF75DFF7B68012283F875
:1033800026207B6893F82430002B04D07B685B698F
:103390001846FFF743FFFB7B18461037BD4680BD3C
:1033A00080B582B000AF78607B685A697B685B8CBF
:1033B00010461946FFF74AFF7B685B6918460021F3
:1033C000FFF752FF7B681B699A687B68DB681046D1
:1033D0001946FFF757FF0837BD4680BD80B400AFE0
:1033E000044BDB6803F4E0631B0A1846BD465DF836
:1033F000047B704700ED00E080B483B000AF03466B
:103400003960FB7197F90730002B0ADB0D4997F9FA
:1034100007303A68D2B29200D2B20B4483F800234C
:103420000AE00949FB7903F00F03043B3A68D2B282
:103430009200D2B20B441A760C37BD465DF8047B7D
:10344000704700BF00E100E000ED00E080B489B00B
:1034500000AFF860B9607A60FB6803F00703FB61B6
:10346000FB69C3F10703062B28BF0623BB61FB6979
:103470000633062B02D9FB69013B00E000237B6188
:10348000BB69012202FA03F35A1EBB681A407B692A
:103490009A407B69012101FA03F3591E7B680B40B6
:1034A000134318462437BD465DF8047B704700BFC0
:1034B00080B582B000AF78607B68013BB3F1807F5C
:1034C00001D301230FE00A4A7B68013B53604FF0B0
:1034D000FF303F21FFF790FF054B00229A60044B1D
:1034E00007221A60002318460837BD4680BD00BF7A
:1034F00010E000E090B486B000AF78600023FB736A
:103500006B497A681346DB0013449B000B44183365
:103510001B68BB60674B1B68002B09D17A68134698
:10352000DB0013449B00624A1344624A1360BBE011
:10353000604B1B687B61BB683B61ABE07B699B694F
:103540001A463B699B1A3B613B69002B7ADC7B691D
:103550005B68002B26D07B6959687A681346DB00CC
:1035600013449B00524A13440B607B6959685048CE
:103570007A681346DB0013449B00034459604C49AE
:103580007A681346DB0013449B000B447A691A6087
:103590007A681346DB0013449B00454A1A447B6952
:1035A0005A601CE0434B196841487A681346DB00B7
:1035B00013449B00034419603E4B19687A68134614
:1035C000DB0013449B003A4A13444B607A6813466D
:1035D000DB0013449B00364A1344364A13603449D7
:1035E0007A681346DB0013449B000B441B689A69FE
:1035F0003B69D1182E487A681346DB0013449B00C0
:103600000344183319602A497A681346DB001344CF
:103610009B000B44196826487A681346DB00134464
:103620009B0003441B689869214C7A681346DB00B1
:1036300013449B00234418331B68C31A8B61012376
:10364000FB7324E03B69002B21DD7B691B68002BA9
:103650001DD117497A681346DB0013449B000B44C5
:103660007A695A607A681346DB0013449B00104A5B
:103670001A447B691A6039690D487A681346DB0081
:1036800013449B000344183319600123FB737B69C7
:103690001B687B617B69002B06D0FB7B83F00103F9
:1036A000DBB2002B7FF44AAF1837BD4690BC7047A1
:1036B000E48FFE1FD089FE1F80B485B000AF786014
:1036C0007A681346DB0013449B00294A1344FB60CD
:1036D000FB685B68002B07D1FB681B68002B03D1DC
:1036E000244B00221A603DE0FB685B68002B14D17C
:1036F000FB681B681F4A13601E4B1B6800225A6040
:103700001C4B1B681B4A12689169FA6892690A444B
:103710009A61FB6800221A6024E0FB681B68002B9A
:1037200007D1FB685B6800221A60FB6800225A60C0
:1037300018E0FB685B68FA6812681A60FB681B682F
:10374000FA6852685A60FB681B68FA6812689169E7
:10375000FA6892690A449A61FB6800221A60FB6861
:1037600000225A601437BD465DF8047B704700BFE5
:10377000E48FFE1FD089FE1F80B582B000AF2F4BB3
:103780001B687B6050E07B6893F82030002B13D0DF
:103790007B685B691846FFF78FFF7B6800225A73CE
:1037A0007B685B691A4601239340DA43244B1B680C
:1037B0001340234A136034E07B681B7B002B12D13B
:1037C0007B685B7B012B2CD17B685B691846FFF71C
:1037D00073FF7B6802225A737B689B687A68126960
:1037E000104698471DE07B681B7B012B18D17B6836
:1037F0005B7B012B15D17B685B691846FFF75CFF8B
:103800007B68DA697B689A617B685B691846FFF7B9
:1038100071FE7B689B687A6812691046984700E0E1
:1038200009E0064B1B687B607B68002B03D07B683C
:103830009B69002BA7D00837BD4680BDD089FE1FED
:10384000D489FE1F80B582B000AF0E4B1B687B6031
:103850000D4B1B6801330C4A13607B68002B0ED0A4
:103860007B689B69012B05D97B689B695A1E7B6825
:103870009A6104E07B6800229A61FFF77DFF0837B8
:10388000BD4680BDD089FE1FD889FE1F80B584B09B
:1038900000AF78600023FB737B681B7883F0010323
:1038A000DBB2002B20D0134B00221A601248FFF726
:1038B000FFFD0346FB73FB7B012B15D0FFF78EFD4D
:1038C000034618463F210022FFF7C0FD03464FF094
:1038D000FF301946FFF790FD084B00221A607B6805
:1038E00001221A700023FB73FB7B18461037BD467C
:1038F00080BD00BFD089FE1F80320200D489FE1F28
:1039000080B400AF034B1B681846BD465DF8047BCE
:10391000704700BFD889FE1F80B485B000AFF86043
:103920000B467A607B817989FB687A68203243F89C
:1039300022101437BD465DF8047B704780B483B015
:1039400000AF78607B689B6BDBB223F07F03DBB258
:1039500018460C37BD465DF8047B704780B483B0D1
:1039600000AF78607B681B6D03F4C04318460C37CA
:10397000BD465DF8047B704780B485B000AFF86049
:103980000B467A607B817989FB687A68603243F8FC
:1039900022101437BD465DF8047B704780B483B0B5
:1039A00000AF78607B684FF48042C3F818210C3771
:1039B000BD465DF8047B704780B483B000AF78608B
:1039C0007B68D3F8143103F00803002B14BF0123E4
:1039D0000023DBB218460C37BD465DF8047B704708
:1039E00080B483B000AF786039607B683A68C3F810
:1039F00018210C37BD465DF8047B704780B485B054
:103A000000AFF860B9607A60FB685B6923F05042F0
:103A1000BB681A437B681A43FB685A611437BD467A
:103A20005DF8047B704700BF80B483B000AF78605E
:103A30000B46FB707B681B6C23F00F02FB781A436C
:103A40007B681A640C37BD465DF8047B704700BF85
:103A500080B582B000AF786078680121FFF7E4FF9D
:103A60000837BD4680BD00BF80B483B000AF78602A
:103A70000B46FB707B681B6C23F0C002FB789B013C
:103A8000DBB21A437B681A640C37BD465DF8047BD1
:103A9000704700BF80B483B000AF786039607B6846
:103AA000DA6C3B681A437B68DA640C37BD465DF814
:103AB000047B704780B483B000AF786039607B6866
:103AC0005B6923F4FE423B68013B9B02134343F4D2
:103AD00080727B685A610C37BD465DF8047B704785
:103AE00080B584B000AFF860B9607A60F868B968F2
:103AF0007A68FFF783FF1037BD4680BD80B584B07C
:103B000000AF78607B685B685B6898470346FB732F
:103B1000FB7B18461037BD4680BD00BF80B584B022
:103B200000AF786039607B689B6893F82030DBB227
:103B300083F00103DBB2002B3FD07B689B68DB7F07
:103B4000DBB283F00103DBB2002B36D07B681B684D
:103B50001846FEF74DFD0346FB73FB7B002B2BD174
:103B6000786800F06FFB7B681B6818463968FEF7C1
:103B700007FD0346FB73FB7B002B09D17B681A68AA
:103B80007B685B6893F8883010461946FFF792FF10
:103B90007B681A687B685B68D3F8803010461946EA
:103BA0000022FFF79DFF7B681B681846FFF750FF58
:103BB000786800F073FA02E001E00223FB73FB7BFC
:103BC00018461037BD4680BD80B586B000AFF8609E
:103BD000B9607A603B600223FB75FB689B683B61C0
:103BE0003B691B7FDBB2002B42D1BB68002B3BD073
:103BF0007B68002B38D03B68002B35D03B69DB7FDE
:103C0000DBB283F00103DBB2002B2CD03B6993F8CD
:103C10002030DBB283F00103DBB2002B23D03B6901
:103C20000122DA773B697A685A613B69BA689A611E
:103C30003B693A685A603B69002283F821203B695E
:103C4000002283F82220FB685B6893F88530022B02
:103C500009D1F868396800F013F80346FB753B6931
:103C60000022DA7703E002E00323FB7502E001E0C3
:103C70000123FB75FB7D18461837BD4680BD00BF8C
:103C800090B587B000AF7860396001237B617B68B5
:103C90009B68FB6000237B82FB6800221A61FB6843
:103CA00000229A607B689B681B68082B01D902235D
:103CB0007B617B69013B1A463B6803FA02F2FB68B1
:103CC000DA607B681A68FB681B7FDBB21046194616
:103CD000FFF7CAFE7B685B6893F87D30002B00F02D
:103CE000D6807B681B681846FFF758FE7B681B6808
:103CF000184600F0C5F9FB6893F82130DBB2002BC1
:103D00000BD07B681A68FB681B7FDBB210464FF64E
:103D1000FF711A46FFF730FE1DE07B69022B07D1C9
:103D2000FB689A69FB689B6813441B887B8206E0EA
:103D3000FB689A69FB689B6813441B787B827B68ED
:103D40001A68FB681B7FDBB21C467B8A104619464B
:103D50002246FFF711FEFB689A687B691A44FB68EC
:103D60009A6061E0FB6893F82130DBB2002B0BD046
:103D70007B681A68FB681B7FDBB210464FF6FF7149
:103D80001A46FFF7F9FD1DE07B69022B07D1FB689E
:103D90009A69FB689B6813441B887B8206E0FB687A
:103DA0009A69FB689B6813441B787B827B681A685E
:103DB000FB681B7FDBB21C467B8A104619462246F5
:103DC000FFF7DAFD00BF7B681B681846FFF7F4FDBC
:103DD0000346002BF7D17B681B681846FEF7EEFB05
:103DE00003467B82FB685A69FB681B6913447A8A25
:103DF000D2B21A707B69022B0AD1FB685A69FB6840
:103E00001B69013313447A8A120A92B2D2B21A7031
:103E1000FB681A697B691A44FB681A61FB689A6837
:103E20007B691A44FB689A60FB689A68FB68DB68E8
:103E30009A4297D300BF7B681B681846FFF7BCFD0A
:103E40000346002BF7D17B681B681846FEF7B6FBCC
:103E500003467B82FB685A69FB681B6913447A8AB4
:103E6000D2B21A707B69022B0AD1FB685A69FB68CF
:103E70001B69013313447A8A120A92B2D2B21A70C1
:103E80007B681B6818460521FFF7AAFDE9E07B68FF
:103E90001B68184600F0F4F800BF7B681B681846E2
:103EA000FFF74CFD0346802BF7D0FB6893F82130D9
:103EB000DBB2002B0BD07B681A68FB681B7FDBB280
:103EC00010464FF6FF711A46FFF726FD1DE07B698D
:103ED000022B07D1FB689A69FB689B6813441B8817
:103EE0007B8206E0FB689A69FB689B6813441B7839
:103EF0007B827B681A68FB681B7FDBB21C467B8A6F
:103F0000104619462246FFF707FDFB689A687B6951
:103F10001A44FB689A6071E000BF7B681B68184612
:103F2000FFF70CFD0346802BF7D0FB6893F8213098
:103F3000DBB2002B0BD07B681A68FB681B7FDBB2FF
:103F400010464FF6FF711A46FFF7E6FC1DE07B694D
:103F5000022B07D1FB689A69FB689B6813441B8896
:103F60007B8206E0FB689A69FB689B6813441B78B8
:103F70007B827B681A68FB681B7FDBB21C467B8AEE
:103F8000104619462246FFF7C7FC00BF7B681B6836
:103F90001846FFF7E3FC0346002BF7D07B681B684D
:103FA0001846FEF70BFB03467B82FB685A69FB68E9
:103FB0001B6913447A8AD2B21A707B69022B0AD128
:103FC000FB685A69FB681B69013313447A8A120A39
:103FD00092B2D2B21A70FB681A697B691A44FB6804
:103FE0001A61FB689A687B691A44FB689A607B686F
:103FF0001B6818464FF44041FFF74CFDFB689A6878
:10400000FB68DB689A4287D300BF7B681B68184651
:10401000FFF7A4FC0346002BF7D07B681B6818460B
:10402000FEF7CCFA03467B82FB685A69FB681B6982
:1040300013447A8AD2B21A707B69022B0AD1FB68C8
:104040005A69FB681B69013313447A8A120A92B2D7
:10405000D2B21A707B681B6818464FF44041FFF7D4
:1040600019FDFB680022DA60FB6800221A61FB6818
:1040700000229A60002318461C37BD4690BD00BF41
:1040800080B582B000AF78607868FEF797FA7868FC
:10409000FEF794FA0837BD4680BD00BF80B584B0F6
:1040A00000AF78600023FB601AE07B685B68FA6809
:1040B0000C3253F8223018687B685B68FA680C325F
:1040C00053F8223019797B685B68FA68143253F828
:1040D00022301B781A46FEF78DF9FB680133FB602E
:1040E0007B685B6893F887301A46FB689A42DCD895
:1040F0007B685B689B6A19687B685B689B6A1A7956
:104100007B685B68DB6A1B78084611461A46FEF737
:1041100071F97B689B681B7FDBB2072B00F28E80F6
:1041200001A252F823F000BF494100083D420008B7
:104130003D4200083D4200083D4200084941000858
:104140006D410008B34100087B685B689B68196893
:104150007B685B689B681A797B685B68DB681B78A7
:10416000084611461A46FEF745F968E07B685B6829
:104170009B6819687B685B689B681A797B685B68D9
:10418000DB681B78084611461A46FEF733F97B6850
:104190005B681B6919687B685B681B691A797B68B7
:1041A0005B685B691B78084611461A46FEF722F9E0
:1041B00045E07B685B689B6819687B685B689B6807
:1041C0001A797B685B68DB681B78084611461A46DB
:1041D000FEF710F97B685B681B6919687B685B6890
:1041E0001B691A797B685B685B691B780846114616
:1041F0001A46FEF7FFF87B685B689B6919687B6865
:104200005B689B691A797B685B68DB691B78084689
:1042100011461A46FEF7EEF87B685B681B6A196860
:104220007B685B681B6A1A797B685B685B6A1B78D2
:10423000084611461A46FEF7DDF800E000BF1037C9
:10424000BD4680BD80B584B000AF78600023FB60C0
:1042500015E07B685B68FA680C3253F82230196805
:104260007B685B68FA680C3253F822301B79084689
:1042700019460022FEF7BEF8FB680133FB607B683D
:104280005B6893F887301A46FB689A42E1D87B68EE
:104290005B689B6A1A687B685B689B6A1B7910463F
:1042A00019460022FEF7A6F87B689B681B7FDBB2ED
:1042B000072B71D801A252F823F000BFDD4200089D
:1042C000994300089943000899430008994300085E
:1042D000DD420008F94200082F4300087B685B6854
:1042E0009B681A687B685B689B681B791046194657
:1042F0000022FEF77FF850E07B685B689B681A68D5
:104300007B685B689B681B79104619460022FEF7A4
:1043100071F87B685B681B691A687B685B681B695E
:104320001B79104619460022FEF764F835E07B68D9
:104330005B689B681A687B685B689B681B791046A2
:1043400019460022FEF756F87B685B681B691A68FD
:104350007B685B681B691B79104619460022FEF7D3
:1043600049F87B685B689B691A687B685B689B6936
:104370001B79104619460022FEF73CF87B685B6803
:104380001B6A1A687B685B681B6A1B7910461946B2
:104390000022FEF72FF800E000BF1037BD4680BDB9
:1043A00080B483B000AF78600B46FB701346BB70DF
:1043B000F878FB787A6806339B0013445B6823F037
:1043C0000702BB781A437968831D9B000B445A602F
:1043D0000C37BD465DF8047B704700BF80B483B0E6
:1043E00000AF78600B46FB707B685B6B23F07062FC
:1043F000FB78013B1B061A437B685A630C37BD46AA
:104400005DF8047B704700BF80B483B000AF786074
:104410000B46FB707B685B6B23F47C12FB78013BE3
:104420001B041A437B685A630C37BD465DF8047B56
:10443000704700BF80B485B000AFF860B9607A60A3
:10444000FB685B6923F05042BB681A437B681A43E0
:10445000FB685A611437BD465DF8047B704700BFA6
:1044600080B483B000AF78600B46FB707B681B6C38
:1044700023F00F02FB781A437B681A640C37BD46A1
:104480005DF8047B704700BF80B582B000AF7860F4
:1044900078680121FFF7E4FF0837BD4680BD00BF03
:1044A00080B483B000AF78607B685B6B43F001023F
:1044B0007B685A630C37BD465DF8047B704700BFCC
:1044C00080B483B000AF786039607B685B6923F4A7
:1044D000FE423B68013B9B02134343F480727B68BE
:1044E0005A610C37BD465DF8047B704780B584B0D7
:1044F00000AFF860B9607A60F868B9687A68FFF769
:1045000099FF1037BD4680BD80B582B000AF78609E
:104510000B46FB70FB7878681946FFF75FFF08379A
:10452000BD4680BD80B582B000AF78600B46FB70A1
:10453000FB7878681946FFF767FF0837BD4680BDEE
:1045400080B582B000AF78600B46FB701346BB703D
:10455000F878FB787A6806339B0013445B6823F095
:10456000500343F010027968831D9B000B445A608E
:10457000FA78BB78786811461A46FFF711FF0837BA
:10458000BD4680BD80B582B000AF0023FB712348DB
:104590002349FDF7B5FF2148FFF782FF1F4810218F
:1045A000FFF7B2FF1D481021FFF7BCFF1B484FF07B
:1045B00080410022FFF79AFF18480121FFF780FF92
:1045C00018480521184AFCF741FD14480021032230
:1045D000FFF7B6FF1148FFF757FF14480021144AB0
:1045E000FCF734FD11480221124AFCF72FFD0B485D
:1045F00010210022FEF766FA084810210422012348
:10460000FEF70EFA0548002104220F23FEF730FAC8
:10461000FB7918460837BD4680BD00BF0040024800
:104620005088FE1F00860248E089FE1F0085024870
:104630003C88FE1F2815010880B400AF044BDB68DE
:1046400003F4E0631B0A1846BD465DF8047B70471F
:1046500000ED00E080B483B000AF0346FB7197F932
:104660000730002B0BDB084997F907305B09FA7913
:1046700002F01F02012000FA02F241F823200C3759
:10468000BD465DF8047B704700E100E080B483B074
:1046900000AF03463960FB7197F90730002B0ADB46
:1046A0000D4997F907303A68D2B29200D2B20B4462
:1046B00083F800230AE00949FB7903F00F03043B68
:1046C0003A68D2B29200D2B20B441A760C37BD4689
:1046D0005DF8047B704700BF00E100E000ED00E002
:1046E00080B489B000AFF860B9607A60FB6803F00D
:1046F0000703FB61FB69C3F10703062B28BF0623F1
:10470000BB61FB690633062B02D9FB69013B00E064
:1047100000237B61BB69012202FA03F35A1EBB68C6
:104720001A407B699A407B69012101FA03F3591E03
:104730007B680B40134318462437BD465DF8047B65
:10474000704700BF80B582B000AF78607B681B788F
:104750005BB21846FFF77EFF0837BD4680BD00BF3D
:1047600090B583B000AF78607B681C78FFF764FF7A
:1047700001467B685B781A467B689B780846114641
:104780001A46FFF7ADFF024663B218461146FFF71F
:104790007DFF7B68DB78002B02D07868FFF7D2FFC3
:1047A000002318460C37BD4690BD00BF80B483B0CF
:1047B00000AF78607B684FF48072DA600C37BD46DA
:1047C0005DF8047B704700BF80B582B000AF7860B1
:1047D0007B685B7B83F00103DBB2002B0FD07B682F
:1047E0009A687B681B7B10461946FDF7F7F97B68D2
:1047F0009B681846FFF7DAFF7B6801225A73002393
:1048000018460837BD4680BD80B400AF044BDB6856
:1048100003F4E0631B0A1846BD465DF8047B70474D
:1048200000ED00E080B483B000AF0346FB7197F960
:104830000730002B0BDB084997F907305B09FA7941
:1048400002F01F02012000FA02F241F823200C3787
:10485000BD465DF8047B704700E100E080B483B0A2
:1048600000AF0346FB7197F90730002B10DB0B49B3
:1048700097F907305B09FA7902F01F02012000FA6C
:1048800002F2203341F82320BFF34F8FBFF36F8F25
:104890000C37BD465DF8047B704700BF00E100E0C7
:1048A00080B483B000AF0346FB7197F90730002B4B
:1048B0000CDB094997F907305B09FA7902F01F020E
:1048C000012000FA02F2603341F823200C37BD4684
:1048D0005DF8047B704700BF00E100E080B483B066
:1048E00000AF03463960FB7197F90730002B0ADBF4
:1048F0000D4997F907303A68D2B29200D2B20B4410
:1049000083F800230AE00949FB7903F00F03043B15
:104910003A68D2B29200D2B20B441A760C37BD4636
:104920005DF8047B704700BF00E100E000ED00E0AF
:1049300080B489B000AFF860B9607A60FB6803F0BA
:104940000703FB61FB69C3F10703062B28BF06239E
:10495000BB61FB690633062B02D9FB69013B00E012
:1049600000237B61BB69012202FA03F35A1EBB6874
:104970001A407B699A407B69012101FA03F3591EB1
:104980007B680B40134318462437BD465DF8047B13
:10499000704700BF80B483B000AF78603960044ACC
:1049A0003B6813600C37BD465DF8047B704700BF61
:1049B00040400050B0B485B000AFF860C7E90023B4
:1049C000FB681968D7E900231C00002523460B6407
:1049D000FB681B683A685A641437BD46B0BC704720
:1049E00080B483B000AF78607B681B687A68126817
:1049F000526822F020025A600C37BD465DF8047BF5
:104A0000704700BF80B483B000AF78607B681B68DC
:104A10007A681268126822F480121A600C37BD4658
:104A20005DF8047B704700BF80B483B000AF78604E
:104A30000B467B8013463B807B681B687A68126854
:104A4000126822F490417A8811433A880A431A6026
:104A50000C37BD465DF8047B704700BF80B483B05F
:104A600000AF78607B681A697B6893F827305B0138
:104A700013441B68DB0FDBB218460C37BD465DF8EC
:104A8000047B704780B483B000AF78607B685A695C
:104A90007B6893F826305B0113441B68DB0FDBB2A5
:104AA00018460C37BD465DF8047B704780B483B070
:104AB00000AF78607B6819687B681B6803F58053DA
:104AC00018331B6843F0020201F5805318331A6053
:104AD0007B681B687A681268126842F004021A60E8
:104AE0000C37BD465DF8047B704700BF80B483B0CF
:104AF00000AF78607B681B687A681268126822F0E1
:104B000004021A607B6819687B681B6803F5805390
:104B100018331B6823F0020201F5805318331A6022
:104B20000C37BD465DF8047B704700BF80B483B08E
:104B300000AF78607B6819687B681B6803F5805359
:104B400018331B6843F4005201F5805318331A6080
:104B50007B681B687A681268126842F008021A6063
:104B60000C37BD465DF8047B704700BF80B483B04E
:104B700000AF78607B681B687A681268126822F060
:104B800008021A607B6819687B681B6803F580530C
:104B900018331B6823F4005201F5805318331A6050
:104BA0000C37BD465DF8047B704700BF80B483B00E
:104BB00000AF78607B681B6803F5805314330222D2
:104BC0001A607B681B6803F58053043300221A6067
:104BD0000C37BD465DF8047B704700BF80B483B0DE
:104BE00000AF78607B681B6803F580531433802224
:104BF0001A607B681B6803F58053083300221A6033
:104C00000C37BD465DF8047B704700BF80B483B0AD
:104C100000AF78607B685A697B6893F826305B0147
:104C200013449B6818460C37BD465DF8047B7047FB
:104C300080B483B000AF78607B681A697B6893F8B2
:104C400027305B0113449B6818460C37BD465DF85E
:104C5000047B704780B483B000AF786039607B68B4
:104C60005A697B6893F826305B0113443A685A60AE
:104C70000C37BD465DF8047B704700BF80B586B039
:104C800000AF786000237B617B6893F82D3003F0E0
:104C90000403002B4FD03148002108F03BF90346B4
:104CA000FB747B6901337B61FB7C83F00103DBB226
:104CB000002B03D07B692A4A9342ECD9FB7C83F01A
:104CC0000103DBB2002B02D0042000F07FFA23485E
:104CD000002108F0E7F803463B822048002108F055
:104CE000FDF80346FB813A8AFB891C4811461A46A7
:104CF000FFF79AFE19484021FDF784FAFFF784FD7B
:104D0000034618463E210022FFF712FE03466C20A0
:104D10001946FFF7E3FD6C20FFF7C2FD6C20FFF79B
:104D200081FD0E48FFF702FF0C48FFF7BFFE0D485C
:104D300002F07AFA0FE009484021FDF79BFA6C2057
:104D4000FFF78CFD0548FFF711FF0448FFF7CEFE83
:104D5000044802F0B9FA1837BD4680BDA088FE1F8E
:104D6000FEFF0F00D088FE1F80B582B000AF7860D4
:104D70001248002108F07CF80346002B0AD1104BA2
:104D800093F82D3003F00403002B0DD00C4802F0F3
:104D9000E9FA09E00A4B93F82D3003F00403002BE5
:104DA00002D1074802F0B6FA4FF47A7005490022A2
:104DB00007F0A2FB0837BD4680BD00BFA088FE1FDC
:104DC000D088FE1F694D000880B588B000AF7860BC
:104DD0004FF480333B6100233B7307F10C034F48D2
:104DE00009211A46FCF732F907F10C034C4804215B
:104DF0001A46FCF72BF907F10C03494802211A4621
:104E0000FCF724F907F10C03454803211A46FCF787
:104E10001DF907F10C03414808211A46FCF716F961
:104E200007F10C033E4800211A46FCF70FF9012355
:104E30003B7588233B7307F10C03394807211A4659
:104E4000FCF704F9364800210122FDF713FBFB7E35
:104E500043F00403FB763B7E6FF301033B763B7E1E
:104E60006FF383033B767B7E022262F301037B7642
:104E70007B7E022262F383037B767B7E6FF3871354
:104E80007B76BB7E012262F38713BB762548B96926
:104E9000FFF780FD2348FDF72DF92248FDF7DAF8EA
:104EA00020480021204A07F063FFF861FB69002BCE
:104EB00004D0FB69DBB2184600F088F91948FCF70A
:104EC0009DFF184BD3E902231648FFF773FD1548E1
:104ED000FFF798FD1348FFF783FD01233B758823F7
:104EE0003B7307F10C030E4805211A46FCF7AEF898
:104EF00088233B7307F10C03094808211A46FCF785
:104F0000A5F888233B7307F10C03054809211A46CD
:104F1000FCF79CF82037BD4680BD00BF008F0248DB
:104F200000820248A088FE1FD015010880B586B017
:104F300000AF7860396000233B613B681B8940F219
:104F4000F452934201D9FE233CE000BF2048FFF712
:104F500099FD0346002BF9D11D48FFF757FEF86075
:104F600038686FF0010102F0B3FC3B687B6117E029
:104F70007B695A687B695B89F86811461A4600F0BC
:104F800037F97B695B891A463B6913443B617B694E
:104F90005B891A46FB681344FB607B691B687B6175
:104FA0007B69002BE4D13868022102F091FC0848AB
:104FB0003969FFF74FFE0648FDF7E2F90448FFF7AD
:104FC000F5FD00235BB218461837BD4680BD00BF13
:104FD000A088FE1F80B584B000AF0023FB602F487F
:104FE000FFF73CFD034683F00103DBB2002B4CD0FE
:104FF0002A48FCF7F7FF78607B68002B42D07B687B
:1050000040F2F45293423DD87B6802337B607B6868
:105010009BB2002019464FF4C17202F061FAF860A9
:10502000FB68002B2DD0F8686FF0010102F050FCF6
:105030001A48FFF7FDFD386000237B60FB68BB600A
:1050400014E0BB6859683A687B681A44BB685B899E
:10505000084611461A4600F0CBF8BB685B891A4631
:105060007B6813447B60BB681B68BB60BB68002B1C
:10507000E7D1F868022102F02BFC0848FDF750F94F
:1050800003E002E00548FDF74BF90448FFF7A6FDF1
:10509000FB6818461037BD4680BD00BFA088FE1FC4
:1050A00080B586B000AF786000237B617B683B6190
:1050B0006C20FFF7D3FBFFF78DFF786124E07B695D
:1050C0005B68FB60FB68DB899BB2184601F094FBD0
:1050D0000346B3F5006F03D040F6060293420CD1AD
:1050E0003B691B697869396998470346002B03D0EF
:1050F000786902F011FC04E003E0786902F00CFC2E
:1051000000BFFFF767FF78617B69002BD7D16C2068
:10511000FFF7C6FB6C20FFF785FB1837BD4680BD47
:1051200080B582B000AF78607B68652283F82E205E
:105130007B686E2283F82F207B68144A5A617B6853
:10514000134A9A617B6840F2DC529A847868FFF7D0
:105150003BFE104B082283F82D200E4B93F82D3088
:1051600043F00203DAB20B4B83F82D204FF47A7030
:105170000949002207F0C0F97868084902F016F9D9
:1051800000235BB218460837BD4680BD495B000866
:105190002D4F0008D088FE1F694D00087D4C000887
:1051A00080B400AFBD465DF8047B704780B500AFAA
:1051B00004484021FDF784F80348FFF771FFFFF72B
:1051C000EFFF80BDA088FE1FD088FE1F80B483B093
:1051D00000AF0346FB71FB79032B04D0042B03D0F3
:1051E000022B02D002E002E001E000E000BFFEE797
:1051F000130911D051F804CB40F804CB51F804CB7B
:1052000040F804CB51F804CB40F804CB51F804CB60
:1052100040F804CB013BEDD112F00F0305D011F89B
:1052200001CB00F801CB013BF9D17047184600BF14
:1052300080B500AFFEF764FB0346184680BD00BF93
:1052400080B586B000AF786039601023FB827B6840
:105250005B89102B00D873E07B68DB7B002B06D1C9
:105260003B6893F830300133DAB27B68DA737B68DD
:105270005B683B613B699A7BDB7B1B021343FB81D1
:105280003B699B7803F00103002B24D03B699B789A
:10529000012B0FD13B69DB78002B1CD13B691B79BB
:1052A0005E2B18D17B685B7B43F01003DAB27B681E
:1052B0005A7310E03B69023318462649062209F06A
:1052C00081FB0346002B06D17B685B7B43F0080320
:1052D000DAB27B685A73FB89082B03D0B3F5C16F30
:1052E00016D02DE03B6893F82D3003F00803002B17
:1052F00000D125E0FB8A7868194602F08DFA034652
:10530000002B00D01CE07868396801F05FF815E0E8
:105310003B6893F82D3003F00803002B00D10FE019
:10532000FB8A7868194602F077FA0346002B00D012
:1053300006E07868396800F001FB00BF002303E055
:10534000786802F0E9FA00235BB218461837BD46C8
:1053500080BD00BFD815010880B586B000AFF860E9
:10536000B9607A603B603B8C184601F045FA034611
:10537000FB82B868102102F03FFA0346002B02D0EE
:1053800000BFFE2319E0BB685B683B613B69FA8A9A
:10539000DA813B690233184639680622FFF728FF95
:1053A0003B690833184679680622FFF721FFFB683E
:1053B0009B69F868B968984703465BB21846183786
:1053C000BD4680BD80B582B000AF786015497A686F
:1053D00013465B001344DB000B441B68002B13D007
:1053E00010497A6813465B001344DB000B441B68CA
:1053F000184602F091FA0B497A6813465B00134491
:10540000DB000B4400221A6006497A6813465B00F1
:105410001344DB000B44103300221A710837BD46D9
:1054200080BD00BFF489FE1F80B582B000AF0023AD
:105430007B6097E04F497A6813465B001344DB00BA
:105440000B4410331B79FB70FB78002B00F0878036
:1054500048497A6813465B001344DB000B44103361
:105460005B88013398B243497A6813465B00134462
:10547000DB000B44103302465A803E497A681346DB
:105480005B001344DB000B4410335B88B3F5967F5D
:1054900015D238497A6813465B001344DB000B448D
:1054A00010331B79012B0ED132497A6813465B0009
:1054B0001344DB000B4410335B88042B03D978685A
:1054C000FFF780FF4BE02B497A6813465B001344DB
:1054D000DB000B4410331B79032B0AD125497A6872
:1054E00013465B001344DB000B44103304221A7193
:1054F00035E020497A6813465B001344DB000B4417
:1055000010331B79042B0AD11A497A6813465B00C1
:105510001344DB000B44103302221A711FE01549BB
:105520007A6813465B001344DB000B4410331B798D
:10553000012B14D10F497A6813465B001344DB003A
:105540000B44083319687A6813465B001344DB0088
:10555000084A134404330846194600F043FD7B68AB
:1055600001337B607B68092B7FF764AF0837BD464A
:1055700080BD00BFF489FE1F80B58AB000AFF8601F
:105580000B467A60FB720A23FB840A23BB840A233E
:105590007B8400233B840A23FB830023BB830023FB
:1055A0007B8300233B8300233B849FE0B7F92020CB
:1055B000804913465B001344DB000B4410331B7916
:1055C000FB75B7F922300A2B05D1FB7D002B02D1E8
:1055D0003B8C7B8486E0FB7D002B00F08380FB68A6
:1055E000002B1ED0FB681968B7F9202071481346BC
:1055F0005B001344DB0003445B68994211D17B6874
:10560000002B0CD0B7F920206A4913465B001344E5
:10561000DB000B4408331A687B689A4201D13B8C4B
:10562000C3E0FB7D012B40D1B7F92020614913462F
:105630005B001344DB000B441B68002B1AD0B7F946
:1056400020205C4913465B001344DB000B441033FD
:105650005B88BA8B9A4245D83B8CFB83B7F92020F4
:10566000544913465B001344DB000B4410335B8842
:10567000BB8337E0B7F920204E4913465B00134443
:10568000DB000B4410335B887A8B9A422AD83B8C20
:10569000FB84B7F92020474913465B001344DB0025
:1056A0000B4410335B887B831CE0FB7D012B19D9F5
:1056B000B7F920203F4913465B001344DB000B443D
:1056C00010335B883A8B9A420CD83B8CBB84B7F979
:1056D0002020384913465B001344DB000B44103391
:1056E0005B883B833B8C01339BB23B84B7F9203012
:1056F000092B7FF75BAFFB7A03F00203002B08D185
:10570000B7F922300A2B07D1FB7A03F00103002BF3
:1057100002D14FF6FF7348E0B7F92230092B02DCC3
:105720007B8C3B841CE0B7F92430092B02DCBB8C5A
:105730003B8410E0B7F92630092B02DCFB8C3B845C
:1057400009E0B7F91E30092B02DCFB8B3B8402E039
:105750004FF6FF7329E0B7F920301846FFF732FE05
:10576000FB68002B0AD0B7F92020FB6819681148A4
:1057700013465B001344DB0003445960B7F9202053
:105780000C4913465B001344DB000B44103300222A
:105790005A80B7F92020074913465B001344DB0009
:1057A0000B4408337A681A603B8C1BB218462837C2
:1057B000BD4680BDF489FE1F80B588B002AFF86099
:1057C000B9607A60FB70BB68002B12D0BB681B68A5
:1057D000002B0ED0BB681B681846F96800F0CAFFA2
:1057E0000346002B05D1BB681B6803F0F003E02BD8
:1057F00001D1F0236CE0FB78B8681946FA68FFF72E
:10580000BBFE0346FB82B7F91630002B02DAFB8A97
:10581000DBB25DE0B7F91620304913465B00134454
:10582000DB000B44103302221A71B7F916202B4902
:1058300013465B001344DB000B440833FA681A601C
:10584000B7F9162013465B001344DB000833234AE4
:10585000134404337A681168196092889A80B7F902
:1058600016201E4913465B001344DB000B44103323
:1058700000225A80B7F91620184913465B001344DA
:10588000DB000B441B68002B21D0B7F9162013490D
:1058900013465B001344DB000B441B683B61B7F904
:1058A00016200E4913465B001344DB000B44002214
:1058B0001A60FB6803F126024FF400630093F86856
:1058C00039697B68FFF748FD386902F025F8002345
:1058D0005BB218461837BD4680BD00BFF489FE1F75
:1058E00080B584B000AF78600023FB601EE01249F1
:1058F000FA6813465B001344DB000B4410331B793A
:10590000FB72FB7A002B0ED00B49FA6813465B0042
:105910001344DB000B4408331A687B689A4202D1B7
:10592000F868FFF74FFDFB680133FB60FB68092B4C
:10593000DDDD1037BD4680BDF489FE1FB0B58AB0ED
:1059400004AF786039603B68002B00D176E07B685B
:105950005B683B613B691B889BB2B3F5807F0CD1D0
:105960003B691B79062B08D13B695B79042B04D179
:105970003B695B889BB2082B03D0786801F0CCFFB1
:105980005CE03B690E3307F10C0210461946042215
:10599000FFF72EFC3B69183307F108021046194641
:1059A0000422FFF725FC3B6804331B68002B02D15F
:1059B0000023FB7509E0BA683B6804331B689A4210
:1059C0000CBF01230023DBB2FB753B6903F1080226
:1059D000FB7D002B01D0012300E0022307F10C0125
:1059E0003868FFF7E9FE3B69DB889BB2B3F5807F3F
:1059F00003D0B3F5007F1DD01DE0FB7D002B18D038
:105A00003B6803F126013B6903F108053B6803F19C
:105A100026043B681A1D3B6908330092019307F185
:105A20000C0302930223039338682A46234600F0AE
:105A300053FA00E000BF786801F06EFF1837BD46EA
:105A4000B0BD00BFB0B586B002AFF860B960134614
:105A5000FB71FA793B4913465B001344DB000B44AE
:105A600010331B79022B53D1FA79364913465B0068
:105A70001344DB000B4410335B88B3F58E7F19D9D8
:105A8000FA7913465B001344DB002E4A13440433B7
:105A9000F868194600F0A6FA0346002B38D1FA79C7
:105AA000284913465B001344DB000B4410330322E8
:105AB0001A712DE0FA79234913465B001344DB0089
:105AC0000B4410335B88B3F5877F21D3FA791346F3
:105AD0005B001344DB001B4A1344191DFA7913467B
