:020000040C00EE
:100000000088FE1F010200089902000899020008FA
:1000100099020008990200089902000800000000F7
:10002000000000000000000000000000990200082D
:10003000990200080000000099020008892B0008BE
:100040009902000899020008990200089902000824
:100050009902000899020008990200089902000814
:1000600099020008000000000000000000000000ED
:100070009902000800000000990200089902000897
:1000800099020008990200089902000899020008E4
:1000900099020008990200089902000899020008D4
:1000A00099020008990200089902000899020008C4
:1000B00099020008990200089902000899020008B4
:1000C00099020008990200089902000899020008A4
:1000D0009902000899020008990200089902000894
:1000E0009902000899020008990200089902000884
:1000F0009902000899020008990200089902000874
:100100009902000899020008990200089902000863
:100110009902000899020008990200089902000853
:10012000990200088DC5000899020008990200088C
:100130009902000899020008990200089902000833
:100140009902000899020008990200089902000823
:100150009902000899020008990200089902000813
:10016000000000000000000000000000000000008F
:1001700099020008990200089902000899020008F3
:1001800099020008990200089902000899020008E3
:1001900099020008990200089902000899020008D3
:1001A0009902000899020008312500081DC60008C0
:1001B00099020008990200089902000899020008B3
:1001C00099020008990200089902000899020008A3
:1001D0009902000899020008990200080000000036
:1001E0009902000899020008990200089902000883
:1001F000F14400089902000899020008000000007C
:10020000DFF874D01D4880471D4C1E4DAC4209DA02
:1002100021686268A368043BA2BFC858D050FAE7BF
:100220000C34F3E7184B194CA34208DA19685A68E2
:100230000020043AA4BF8850FBE70833F4E71448D1
:100240008047144880470000ECF4000C0088FE1F33
:100250009C010000ECF4000C0088FE1F0000000070
:10026000A089FE1FF07300000000002000000000C5
:1002700000000020A03000000088FE1F9D02000842
:1002800048020008600200086002000878020008C6
:10029000F1E2000835CF0008FEE7000098B500AF96
:1002A000054A4FF0005314460FCB84E80F000CF0C2
:1002B00011F80CF08DF898BDC4FF032080B584B010
:1002C00000AF2F4BDB6803F48033002B3ED02D4B67
:1002D000DB6803F00103002B02D02B4BFB6002E034
:1002E0000CF058F8F860274B1B6803F00403002B50
:1002F00020D0244B9B6803F070631B0E0133BB605E
:10030000204B9B6803F4FE431B0A01337B601D4BAB
:100310009B6803F4FE031B0C01333B60BB683A6827
:1003200002FB03F3FA68B2FBF3F37A6802FB03F310
:10033000FB600DE0134B9B6803F07F0301333B60D0
:10034000FA683B68B2FBF3F3FB6001E00E4BFB6025
:100350000B4BDB68DBB20133FA68B2FBF3F3FB60F3
:10036000074B1B6903F001030133FA68B2FBF3F397
:10037000FB60064AFB6813601037BD4680BD00BFB6
:10038000004600501047005000366E01C0FF0320A9
:1003900080B485B000AFF8600B467A60FB72FB7AE0
:1003A0009B08DBB21846FB7A9B08DBB21A46FB6857
:1003B000043253F82220FB7A03F00303DB001946D2
:1003C000F8238B40DB4302EA0301FB68021D43F87C
:1003D0002210FB685A6FFB7A5B00194603238B409F
:1003E000DB431A40FB685A67FB683A4A934203D0E2
:1003F000FB68394A93420AD1FB681A6EFB7A0121E5
:1004000001FA03F3DB431A40FB681A6642E07B689B
:100410001B78DBB25BB2002B3CDA7B685A68FB7A54
:100420009A40FB685A60FB7ADB08DBB21846FB7A1D
:10043000DB08DBB21A46FB68103253F82220FB7A45
:1004400003F007039B00194607238B40DB4302EAB6
:100450000301FB6800F1100243F82210FB7ADB086D
:10046000DBB21846FB7ADB08DBB21A46FB681032B7
:1004700053F822207B681B7A1946FB7A03F00703A6
:100480009B0001FA03F342EA0301FB6800F110024A
:1004900043F82210FB7A9B08DBB21846FB7A9B08D4
:1004A000DBB21A46FB68043253F822207B681B78C3
:1004B0001946FB7A03F00303DB0001FA03F342EA77
:1004C0000301FB68021D43F822101437BD465DF896
:1004D000047B7047008E0248008F024880B400AF52
:1004E000034B1B681846BD465DF8047B704700BF90
:1004F000C0FF032080B400AF034BD3F8C4301846CC
:10050000BD465DF8047B70470040005080B584B064
:1005100000AF7860FFF7D2FE0B4B1B680B4AA2FBC3
:1005200003239A0C7B6802FB03F37B600023FB60D0
:1005300003E000BFFB680133FB60FA687B689A4206
:10054000F7D31037BD4680BDC0FF032083DE1B43B9
:1005500080B400AF034B5B681846BD465DF8047B72
:10056000704700BF7440005080B483B000AF786023
:10057000034A7B68D3600C37BD465DF8047B704747
:1005800074400050B0B584B002AF7860002000F035
:10059000BFF800F0A5FA7B68DB79002B0AD000F0E9
:1005A000DDFA00BF00F0C8FA034683F00103DBB2B6
:1005B000002BF7D17B685B7A184600F023F900BF67
:1005C000FFF798FF0346002BFAD17B681B7A184689
:1005D00000F060FA7B681B7C184600F031F97B68FC
:1005E0005B7C184600F054F97B689B7C184600F051
:1005F0003BF97B68DB7C184600F05EF97B689B79F1
:10060000002B0AD000F0E2FA00BF00F007FB03461F
:1006100083F00103DBB2002BF7D17B68DB78002B82
:1006200002D100F01FFB14E000F00CFB7B689988FE
:100630007B68DA787B685B781D467B681B781C4694
:100640007B689B780093084611462A46234600F0B3
:1006500019FB7B68DB68B3F5803F03D14FF4803032
:1006600000F056F8FFF72AFE0837BD46B0BD00BFC0
:1006700080B485B000AF78607B681B0FFB607B683F
:1006800023F07043BB60FA6813465B0013449B0081
:100690001A46044B1344BA681A601437BD465DF815
:1006A000047B70471444005080B485B000AF78607C
:1006B0007B681B0FFB607B6823F07043BB60FA68AC
:1006C00013465B0013449B001A46084B13441A68F8
:1006D000BB681340002B14BF01230023DBB2184674
:1006E0001437BD465DF8047B704700BF0C440050D2
:1006F00080B500AFFFF7F2FE0246044B5B6903F0E2
:10070000010322FA03F3184680BD00BF00460050E3
:1007100080B483B000AF78600649064BDB6823F4F1
:1007200080327B681343CB600C37BD465DF8047B99
:10073000704700BF0046005080B483B000AF7860BF
:100740000649064B9B6923F480327B6813438B6117
:100750000C37BD465DF8047B704700BF0046005073
:1007600080B483B000AF78600649064B5B6A23F41F
:1007700040327B6813434B620C37BD465DF8047B07
:10078000704700BF0046005080B483B000AF0346FE
:10079000FB80FB88002B08D10A4A0A4BDB6823F454
:1007A000807323F00103D36007E0064A054BDB6842
:1007B00043F4807343F00103D3600C37BD465DF80A
:1007C000047B70471047005080B483B000AF0346ED
:1007D000FB7100BF094BD3F8C43003F00803002BB2
:1007E000F8D10749064BDB6823F04002FB7913433D
:1007F000CB600C37BD465DF8047B7047004000506D
:100800000043005080B483B000AF0346FB7100BFCB
:10081000094BD3F8C43003F00803002BF8D1074983
:10082000064BDB6823F08002FB791343CB600C3767
:10083000BD465DF8047B7047004000500043005007
:1008400080B483B000AF78600649064BDB6823F0C4
:10085000FF027B68013B1343CB600C37BD465DF85C
:10086000047B70470046005080B483B000AF7860CE
:100870000649064B1B6A23F001027B68013B1343C8
:100880000B620C37BD465DF8047B70470046005094
:1008900080B483B000AF78600649064B1B6923F033
:1008A00001027B68013B13430B610C37BD465DF8C9
:1008B000047B70470046005080B483B000AF78607E
:1008C0000649064B5B6923F001027B68013B134339
:1008D0004B610C37BD465DF8047B70470046005005
:1008E00080B483B000AF78600649064B9B6923F063
:1008F00007027B68013B13438B610C37BD465DF8F3
:10090000047B70470046005080B483B000AF78602D
:100910000649064BDB6923F03F027B68013B13432A
:10092000CB610C37BD465DF8047B70470046005034
:1009300080B483B000AF78600649064B5B6A23F051
:10094000FF027B68013B13434B620C37BD465DF8E9
:10095000047B70470046005080B483B000AF7860DD
:100960000649064B9B6B23F003027B68013B134354
:100970008B630C37BD465DF8047B70470046005022
:1009800080B483B000AF0346FB71044AFB79536027
:100990000C37BD465DF8047B704700BF0046005031
:1009A00080B485B000AF78607B681B0FFB607B680C
:1009B00023F07043BB60FA6813465B0013449B004E
:1009C0001A46044B1344BA681A601437BD465DF8E2
:1009D000047B70474846005080B485B000AF786013
:1009E0007B681B0FFB607B6823F07043BB60FA6879
:1009F00013465B0013449B001A46084B13441A68C5
:100A0000BB681340002B14BF01230023DBB2184640
:100A10001437BD465DF8047B704700BF4046005068
:100A200080B483B000AF78603960194A184B5B69B5
:100A300043F001035361164A154B5B6943F0100301
:100A4000536113493B68013B1A027B68013B1B065B
:100A500013434B610E4A0E4B5B6943F040035361F5
:100A60000B4A0B4B5B6923F010035361084A084B98
:100A70005B6943F48023536100BF054B1B6903F09E
:100A80000403002BF9D00C37BD465DF8047B70479A
:100A90001047005080B582B000AF0346FB710F4A8B
:100AA0000E4B5B6843F480135360FB79012B0ED12E
:100AB0000A4A0A4B5B6823F4801353606420FFF7F3
:100AC00025FD064A054B5B6843F400235360642010
:100AD000FFF71CFD0837BD4680BD00BF1047005022
:100AE00080B400AF124B1B6803F00103002B09D147
:100AF0000F4B01225A6000BF0D4B1B6803F001032E
:100B0000002BF9D00B4B1B6803F40073002B0AD0A9
:100B1000084B4FF400729A6000BF064B1B6803F449
:100B20000073002BF9D1BD465DF8047B704700BF10
:100B3000004200500044005080B400AF064B1B68D8
:100B400003F00803002B0CBF01230023DBB218467F
:100B5000BD465DF8047B70470043005080B500AF90
:100B60004FF40000FFF700FD174A174BDB6923F035
:100B70003003D36100BFFFF7EBFC034603F400032F
:100B8000002BF8D04FF40030FFF7EEFC0E4B08229C
:100B90005A6000BFFFF7DCFC034603F40033002B70
:100BA000F8D04FF40020FFF7DFFC074A064BDB6864
:100BB00043F00803D36000BFFFF7CAFC034603F409
:100BC0000023002BF8D080BD00430050B0B500AF2B
:100BD0000F4A0F4B5B6823F4803353600D4D0D4B70
:100BE0005B6823F4702424F030040BF0D3FB02463E
:100BF000094BA3FB02231B0D013B1B0423436B602A
:100C0000034A034B5B6823F400335360B0BD00BF5D
:100C100010470050004700506BCA5F6B80B400AFB4
:100C2000074B1B6803F46073B3F5607F0CBF0123AF
:100C30000023DBB21846BD465DF8047B704700BF59
:100C40001047005080B400AF054A054B5B6823F4A1
:100C5000803323F002035360BD465DF8047B704788
:100C60001047005080B400AF054A054B5B6843F461
:100C7000803343F002035360BD465DF8047B704748
:100C80001047005080B586B000AFBA607B60034665
:100C9000FB810B467B73FB891846FFF775FD7B7B59
:100CA000012B40F08480FB89002B09D10BF072FBF3
:100CB00002464B4BA3FB02239B0C9B057B6102E08E
:100CC0004FF0C0637B617B697A6802FB03F2BB680B
:100CD000B2FBF3F37B617B69424AA2FB03231B094E
:100CE0009B0D3B61404A404B5B6843F001035360FE
:100CF0003D4A3D4B5B6843F0100353603A493A4B21
:100D00009A683A4B13407A68013A12021A433B69D7
:100D1000013B1B041A43BB68013B1B0613438B605A
:100D2000314A314B5B6843F0400353602E4A2E4BEF
:100D30005B6823F0100353602B4A2B4B5B6843F432
:100D40008023536000BF284B1B6803F00403002B73
:100D5000F9D0254A244B5B6823F00103536000BFA0
:100D6000214B1B6803F00103002BF9D17B69204A5A
:100D7000A2FB03235B099B0D3B613A6A3B699A42E4
:100D800002D2386900F038F87B695B08194AA2FB87
:100D900003235B099B0D3B613A6A3B699A4202D28D
:100DA000386900F029F8386A00F026F815E00E4995
:100DB0000D4B9B6823F07F023B6A013B13438B6022
:100DC000094A094B5B6843F00103536000BF064BBF
:100DD0001B6803F00103002BF9D01837BD4680BD16
:100DE00083DE1B43ABAAAAAA10470050FF8080F005
:100DF00089888888B7600BB680B582B000AF78600C
:100E00000749074B9B6823F4FE027B68013B1B04E8
:100E100013438B603220FFF779FB0837BD4680BD56
:100E20001047005080B483B000AF78607B684FF407
:100E30008072DA600C37BD465DF8047B704700BFF6
:100E400080B582B000AF78607B68104A934203D1CE
:100E50000420FFF70DFC16E07B680D4A934203D196
:100E60000820FFF705FC0EE07B680A4A934203D195
:100E70001020FFF7FDFB06E07B68074A934202D192
:100E80000648FFF7F5FB0837BD4680BD00C00040AF
:100E900000000140004001400040004801000010F7
:100EA00080B582B000AF78607B68104A934203D16E
:100EB0000420FFF775FD16E07B680D4A934203D1CD
:100EC0000820FFF76DFD0EE07B680A4A934203D1CC
:100ED0001020FFF765FD06E07B68074A934202D1C8
:100EE0000648FFF75DFD0837BD4680BD00C00040E5
:100EF0000000014000400140004000480100001097
:100F000080B582B000AF78601020FFF739FD7868B7
:100F1000FFF7C6FF7868FFF793FF0837BD4680BD2F
:100F200080B584B000AF78600B46FB707868FFF73F
:100F3000E7FF7868FFF776FF7B681B68FB60FB685C
:100F400023F44043FB60FB789B03FA681343FB6088
:100F50007B68FA681A601037BD4680BD80B483B0E4
:100F600000AF786039603B681A687B685A613B68FB
:100F70005B79C3F34013DBB21A057B685A603B68A8
:100F80001B79C3F30303DBB21A467B685A623B68E2
:100F90005B79C3F30303DBB21A467B681A623B68D2
:100FA0005B79C3F30013DBB21A467B689A613B6836
:100FB0001B79C3F30313DBB21A467B68DA620C3782
:100FC000BD465DF8047B704780B487B000AF7860A1
:100FD0000B46FB701346BB707B68D3F8A830FB60F0
:100FE000FB78092B2CD801A252F823F01510000829
:100FF000151000081F1000081F10000841100008FD
:101000004110000841100008411000082910000894
:101010003510000803233B6100237B6116E00C239D
:101020003B6102237B6111E04FF440733B61082375
:101030007B610BE04FF440633B610A237B6105E079
:101040004FF440533B610C237B6100BF3B69DB43A2
:10105000FA681340FB60BA787B6902FA03F3FA6816
:101060001343FB607B68FA68C3F8A8201C37BD46B1
:101070005DF8047B704700BF80B483B000AF786038
:101080007B681B687A68126802F58052126842F029
:10109000010203F580531A6000BF7B681B6803F5EB
:1010A00080531B6803F00103002BF6D10C37BD46BB
:1010B0005DF8047B704700BF80B400AF064B1A6830
:1010C000064B1B6903F0010302FA03F31846BD4601
:1010D0005DF8047B704700BFC0FF0320004600504E
:1010E00080B500AFFFF7E8FF03465B08184680BDF8
:1010F00080B483B000AF78607A6844F2450313404F
:10110000002B14BF01230023DBB218460C37BD4669
:101110005DF8047B704700BF80B483B000AF786097
:101120007A6842F2BA731340002B14BF01230023E4
:10113000DBB218460C37BD465DF8047B704700BF34
:1011400080B582B000AF78607868FFF795FF7B6864
:101150001B684FF480621A607B681B6880229A616A
:101160007B681B6803F580531833194A1A607B6843
:101170001B6803F58053174A1A60786800F02CF852
:10118000786800F081F87B681B6803F5805314339E
:101190004FF0FF321A607B681B686FF07C42C3F827
:1011A00010217B681B686FF07C42C3F80C217B68C0
:1011B0001B686FF0C022C3F800227B681B684FF4E5
:1011C0000272DA637B6800221A620837BD4680BD6E
:1011D000040020028020010280B485B000AF786056
:1011E0000023FB6037E07B681A69FB685B011344EE
:1011F0004FF000421A607B681A69FB685B01134478
:1012000044F2F4525A607B681A69FB685B0113442C
:101210007A689169FA6840F2F45000FB02F20A44DD
:101220009A60FB680133BB607B6893F824301A46F0
:10123000BB689A4201D10023BB607B681A69FB68D6
:101240005B0113447A681169BA6852010A44DA6092
:10125000FB680133FB607B6893F824301A46FB6817
:101260009A42C0D87B681B687A68126903F580537C
:101270000C331A607B68002283F827201437BD46A0
:101280005DF8047B704700BF80B485B000AF786024
:101290000023FB602EE07B685A69FB685B01134406
:1012A000204A1A607B685A69FB685B0113447A68BC
:1012B000D169FA6840F2F45000FB02F20A449A60E5
:1012C000FB680133BB607B6893F825301A46BB6826
:1012D0009A4201D10023BB607B685A69FB685B01BD
:1012E00013447A685169BA6852010A44DA60FB68AB
:1012F0000133FB607B6893F825301A46FB689A42FD
:10130000C9D87B681B687A68526903F5805310332B
:101310001A607B68002283F826201437BD465DF8EA
:10132000047B70470000103080B485B000AF786057
:101330000023FB607B681A697B6893F827305B01A8
:1013400013441B68BB60BB68002B02DA0023FB6000
:1013500018E0BB6803F40043002B09D1BB6803F419
:101360000073002B04D0BB6803F48073002B03D1FF
:101370004FF0FF33FB6005E0BA68064B13401B0CCF
:10138000043BFB60FB6818461437BD465DF8047BE0
:10139000704700BF0000FF3F80B586B000AF7860A7
:1013A000FFF79EFE38610023FB757B681B681033D6
:1013B000FB603B691A4A934203D8FB6808221A6013
:1013C00029E03B69174A934203D8FB680C221A6054
:1013D00021E03B69144A934203D8FB6800221A605B
:1013E00019E03B69114A934203D8FB6804221A6052
:1013F00011E03B690E4A934203D8FB6810221A6041
:1014000009E03B690B4A934203D8FB6814221A6037
:1014100001E00223FB75FB7D18461837BD4680BDF1
:10142000C00E16020087930300E1F50580D1F00895
:1014300000C2EB0B80B2E60E80B582B000AF7860E0
:101440000420FFF79DFA0448FFF7AAFA0248FFF7C5
:101450000FF90837BD4680BD0400002080B487B076
:1014600000AFF8607B600B46FB721346BB72FB68F3
:101470001B68FA681268126902F03C01FA7AD2021B
:101480001143BA7A92010A4342F001021A61002321
:101490007B61FB681B681B6903F00103002B07D10C
:1014A000FB681B685B699AB27B681A80002308E0BE
:1014B0007B6901337B617B694FF6FE729342E8D909
:1014C000022318461C37BD465DF8047B704700BFF9
:1014D00080B485B000AF7860084611461A460346CE
:1014E000FB700B46BB7013463B807B681B683A88D9
:1014F0005A617B681B687A681268126902F03C01C5
:10150000FA78D2021143BA7892010A4342F00302F8
:101510001A610023FB607B681B681B6903F00103F1
:10152000002B01D1002308E0FB680133FB60FB685E
:101530004FF6FE729342EED9022318461437BD4689
:101540005DF8047B704700BF80B582B000AF786063
:1015500039607B681B687A681268D16B3A68120C34
:10156000D2430A40DA633B68C3F30E033B6038683A
:10157000FFF7BEFD0346002B03D03B6843F48033E6
:101580003B603868FFF7C8FD0346002B03D03B687B
:1015900043F400433B607B6819687B681B6803F574
:1015A00080531C331A683B681A4301F580531C337F
:1015B0001A600837BD4680BD80B483B000AF786044
:1015C00039607B681B687A681268D16B3A68120CC4
:1015D0000A43DA633B68C3F30E033B607B68196818
:1015E0007B681B6803F580531C331A683B68DB4338
:1015F0001A4001F580531C331A600C37BD465DF864
:10160000047B704780B483B000AF786039607B683A
:101610001B6803F5805314331B6803F48033002BDD
:1016200003D03B6843F480333B607B681B6803F561
:10163000805314331B6803F40043002B03D03B6832
:1016400043F400433B607B681B683A68C2F31002B6
:1016500003F5805314331A600C37BD465DF8047BE4
:10166000704700BF80B483B000AF78607B681A69B0
:101670007B6893F827305B0113447A6811697A68B4
:1016800092F8272052010A44126842F000421A6080
:101690007B6893F827300133DAB27B6883F8272020
:1016A0007B6893F827207B6893F824309A4203D113
:1016B0007B68002283F827200C37BD465DF8047B49
:1016C000704700BF80B483B000AF78607B6893F848
:1016D00026207B6883F828207B685A697B6893F80A
:1016E00026305B011A447B6859697B6893F8263081
:1016F0005B010B441B6843F0004343F44003136059
:101700007B6893F826300133DAB27B6883F82620B1
:101710007B6893F826207B6893F825309A4203D1A2
:101720007B68002283F826207B6800221A620C372F
:10173000BD465DF8047B704780B483B000AF78602D
:101740000B46FB701346BB70FB789B08DBB2184658
:10175000FB789B08DBB21A467B68043253F82220E0
:10176000FB7803F00303DB001946F8238B40DB43CF
:1017700002EA03017B68021D43F82210FB789B08F4
:10178000DBB21846FB789B08DBB21A467B68043252
:1017900053F82220BB78F97801F00301C9008B408F
:1017A00042EA03017B68021D43F822100C37BD4654
:1017B0005DF8047B704700BF80B483B000AF7860F1
:1017C0000B46FB701346BB707B685A6FFB785B005F
:1017D000194603238B40DB431A407B685A677B68BA
:1017E0005A6FBB78F97849008B401A437B685A6777
:1017F0000C37BD465DF8047B704700BF80B483B0F2
:1018000000AF78607B689B6BDBB223F07F03DBB2B9
:1018100018460C37BD465DF8047B704780B483B032
:1018200000AF78600B46FB707B681B6C23F00F02E7
:10183000FB781A437B681A640C37BD465DF8047B5D
:10184000704700BF80B582B000AF786039607868BB
:1018500000F04CF93B685B79002B12D13B681B7997
:10186000002B07D03B681B6878681946022200F0FD
:10187000F9F906E03B681B6878681946022200F017
:1018800081F97B680E4A5A637B684FF4A2629A63BF
:101890003B685B79002B07D13B689B7943F00B03D6
:1018A000DBB21A467B68DA637B684FF0FF32DA649A
:1018B0003B681B891A467B681A640837BD4680BDA1
:1018C00002013F0780B584B000AF78603960012322
:1018D000FB73FEF70DFF03465A083B689A4209D393
:1018E00078683968022200F04DF90346002B01D1D7
:1018F0000023FB73FB7B18461037BD4680BD00BF3D
:1019000080B485B000AF78607B68D3F80C3103F009
:10191000E063002B03D17B685B6DFB8103E07B6898
:10192000D3F81C31FB81FB8918461437BD465DF89E
:10193000047B704780B584B000AF78600023FB73F0
:101940007868FFF75BFF0346DBB25BB2002B02DA7D
:101950000223FB7303E078680021FFF75FFFFB7B46
:1019600018461037BD4680BD80B483B000AF7860A4
:101970007B689B6BDBB223F07F03DBB218460C372E
:10198000BD465DF8047B704780B483B000AF7860DB
:1019900039607B683A68DA640C37BD465DF8047BD1
:1019A000704700BF80B584B000AF78603960102305
:1019B000FB60786800F09AF83B681B7A002B02D035
:1019C0003B681B7AFB603B681B79002B09D03B68A6
:1019D0001B681A46FB68786811461A4600F042F9FF
:1019E00006E03B681B6878681946FA6800F0CAF898
:1019F0003B68DB79013B5A00FB685B0801331B0243
:101A0000134343F4403343F001037A68D3633B68E4
:101A10005B79013B1B0643F481727B685A633B6828
:101A20009B79002B09D07B685A6B3B689B79013B03
:101A30001B041A437B685A6308E07B685A6B3B6857
:101A40005B79013B1B041A437B685A637B684FF444
:101A5000A0629A637B684FF0FF32DA643B685B896F
:101A60001A467B681A641037BD4680BD80B582B0C7
:101A700000AF78600B467B807B68D3F8083103F0B9
:101A8000E063002B10D100BF7868FFF76DFF0346BD
:101A9000802BF9D078684FF40051FFF775FF7A88F2
:101AA0007B68C3F8802003E07A887B68C3F88021D4
:101AB0000837BD4680BD00BF80B485B000AF7860F8
:101AC0007B68D3F80C3103F0E063002B03D17B6813
:101AD0005B6DFB8103E07B68D3F81C31FB81FB89E4
:101AE00018461437BD465DF8047B704780B582B058
:101AF00000AF78607B681A4A934203D07B68194A2A
:101B0000934203D1184800F09BF916E07B68174A0E
:101B1000934203D07B68164A934203D1154800F0E4
:101B20008FF90AE07B68144A934203D07B68134A1A
:101B3000934202D1124800F083F97B680322DA60F5
:101B400000BF7B68DB6803F00103002BF9D07B68E2
:101B50001B6C23F00F027B681A640837BD4680BDFA
:101B60000000034000020340080003400000024858
:101B700000020248080002480040024800420248B1
:101B80000840024880B58EB000AFF860B9607A6056
:101B9000BB68632B58D97B68002B55D0FEF7A8FD96
:101BA00002462E4BA3FB02235B093B62BB682B4A18
:101BB000A2FB03235B09BB600123FB620123BB6221
:101BC00040F2FF337B6240F2FF333B6322E03B6A2B
:101BD0003A6B02FB03F2BB68796801FB03F3B2FBCB
:101BE000F3F3FB61FB699B0ABB61FB69C3F3090368
:101BF0007B61BB69B3F5806F09D27A697B6A9A42CF
:101C000005D27B697B62BB69BB623B6BFB623B6B52
:101C1000013B3B633B6B002BD9D1FB6A43F4004291
:101C2000FB681A61FB685A690D4B13407A68013AE8
:101C300092021A43BB6A013B1B041A43FB685A61B8
:101C4000002387F8373002E0012387F8373097F810
:101C5000373018463837BD4680BD00BF1F85EB5171
:101C6000EF8000FC80B58CB000AFF860B9607A609E
:101C7000FEF73EFD03463B62BB687A6802FB03F356
:101C8000FB610123FB623A6AFB699A425FDD3A6AB3
:101C9000FB6992FBF3F3BB6210E0FB6A0133FB626A
:101CA000BB687A6802FB03F31A46FB6A03FB02F384
:101CB000FB613A6AFB6992FBF3F3BB62BB6A40F2D9
:101CC000FE329342E9D83A6A7B68B96A01FB03F3B2
:101CD000F96A01FB03F3B2FBF3F3BB613A6ABB6A37
:101CE0000133796801FB03F3F96A01FB03F3B2FBEB
:101CF000F3F37B61BA687B69D31A83EAE372A2EBE0
:101D0000E372B968BB69CB1A002BB8BF5B429A4239
:101D100002DABB6A0133BB62BB6AC3F58063BB6294
:101D2000BB6A43F48042FB681A61FB685A690C4B3A
:101D300013407A68013A92021A43FB6A013B1B0482
:101D40001A43FB685A61002387F8273002E0012319
:101D500087F8273097F8273018463037BD4680BDC2
:101D6000EF8000FC80B485B000AFF860B9603B60E4
:101D70001346FB71FB68D3F8083123F0E062FB687F
:101D8000C3F80821FB68D3F80821094B13403A68CF
:101D90001102BA681143FA7912060A431A43FB6822
:101DA000C3F808211437BD465DF8047B704700BFB7
:101DB000C0C0FFF880B485B000AFF860B9603B6088
:101DC0001346FB71FB68D3F80C3123F0E062FB682B
:101DD000C3F80C21FB68D3F80C210A4B13403A6876
:101DE0001102BA681143FA7912060A43134343F009
:101DF0008052FB68C3F80C211437BD465DF8047BA4
:101E0000704700BFC0C0FFEF80B485B000AFF8607E
:101E10000B467A60FB72FB689A69FB7A072101FA2C
:101E200003F3DB431A40FB7A796801FA03F31A43A0
:101E3000FB689A611437BD465DF8047B704700BFAC
:101E400080B582B000AF78607B68284A934218D191
:101E50004FF40060FEF7A4FD00BF4FF40060FEF7F2
:101E6000BBFD0346002BF8D14FF40060FEF700FCE9
:101E700000BF4FF40060FEF717FC0346002BF8D1BB
:101E800030E07B681A4A934214D11A48FEF788FD65
:101E900000BF1848FEF7A0FD0346002BF9D11548F6
:101EA000FEF7E6FB00BF1348FEF7FEFB0346002BE0
:101EB000F9D117E07B68104A934213D10F48FEF71F
:101EC0006FFD00BF0D48FEF787FD0346002BF9D1DB
:101ED0000A48FEF7CDFB00BF0848FEF7E5FB0346C6
:101EE000002BF9D10837BD4680BD00BF0800034074
:101EF000080002488000001008400248000100105D
:101F000080B584B000AF7860144B1B68002B02D101
:101F1000124B134A1A60114B1B68FB607B6803333A
:101F200023F003037B600D4B1A687B6813440D4A52
:101F3000934207D2094B1A687B681344074A13601F
:101F4000FB6806E00CF0CEF902460C2313604FF05C
:101F5000FF3318461037BD4680BD00BFA089FE1F65
:101F6000A0300020C0FF032080B400AFBD465DF864
:101F7000047B704780B483B000AF786039607B68C1
:101F80001A6C3B68DB431A407B681A640C37BD4609
:101F90005DF8047B704700BF80B483B000AF786009
:101FA0007B689B6BDBB223F07F03DBB218460C37F8
:101FB000BD465DF8047B704780B483B000AF7860A5
:101FC00039607B68D3F808213B68DB431A407B68A3
:101FD000C3F808210C37BD465DF8047B704700BF8D
:101FE00080B483B000AF78607B68D3F8143103F419
:101FF0008053002B14BF01230023DBB218460C379B
:10200000BD465DF8047B704780B483B000AF786054
:102010007B68D3F8143103F40063002B14BF012351
:102020000023DBB218460C37BD465DF8047B7047D1
:1020300080B483B000AF78607B684FF48042C3F80F
:1020400018210C37BD465DF8047B704780B483B01F
:1020500000AF78607B68D3F8143103F00803002BDD
:1020600014BF01230023DBB218460C37BD465DF8D0
:10207000047B704780B483B000AF78607B689B6C52
:1020800018460C37BD465DF8047B704780B483B0BA
:1020900000AF786039607B683A68DA640C37BD4617
:1020A0005DF8047B704700BF80B584B000AF7860F6
:1020B0000023FB737B685B685B6898470346FB7390
:1020C000FB7B18461037BD4680BD00BF80B586B08B
:1020D00000AFF860B9607A600423FB75FB685B6849
:1020E00093F82630022B00D007E0F868B9687A68C8
:1020F00000F008F80346FB7500BFFB7D1846183753
:10210000BD4680BD90B589B000AFF860B9607A6017
:102110000323FB77BB68002B60D07B68002B5DD06E
:102120000223FB77FB689B685B7EDBB283F00103D5
:10213000DBB2002B52D0FB689B6801225A76FB6809
:102140005B6893F82830002B04D0FB681B681846A6
:10215000FFF76EFF0023BB6136E0FB685B6893F816
:102160002830002B09D000BFFB681B681846FFF71A
:102170006DFF0346002BF7D118E0FB681B6818467B
:10218000FFF778FF786105E0FB681B681846FFF7EA
:1021900071FF78617B6903F44043002BF4D0FB6846
:1021A0001B6818464FF44041FFF770FFBA68BB69DF
:1021B000D418FB681B681846FFF77EFC0346DBB2A9
:1021C0002370BB690133BB61BA697B689A42C4D38F
:1021D0000023FB77FB689B6800225A76FB7F18463A
:1021E0002437BD4690BD00BF80B584B000AF786095
:1021F0007B689B68FB60FB68DA68FB689B689A42B7
:1022000040D27B685B6893F82730002B27D01AE018
:10221000FB68DA68FB689B689A4212D27B6819688F
:10222000FB681A68FB68DB6813441B789BB208469E
:102230001946FFF71BFCFB68DB685A1CFB68DA6079
:1022400001E000BF53E07B681B681846FFF7C8FE3B
:10225000034683F00103DBB2002BD9D147E07B6852
:102260001968FB681A68FB68DB6813441B789BB22B
:1022700008461946FFF7FAFBFB68DB685A1CFB6847
:10228000DA6034E07B681B681846FFF7BDFE034642
:10229000002B2CD07B685B6893F82730002B07D08D
:1022A0007B681B6818464FF08041FFF785FE06E00B
:1022B0007B681B6818464FF40051FFF75BFE00BFB8
:1022C0007B681B681846FFF767FE0346802BF7D034
:1022D000FB6800221A76FB6800221A607B685B6844
:1022E0009B68002B03D07B685B689B68984710371E
:1022F000BD4680BD80B400AF044BDB6803F4E063EF
:102300001B0A1846BD465DF8047B704700ED00E0EF
:1023100080B483B000AF0346FB7197F90730002B00
:102320000BDB084997F907305B09FA7902F01F02C5
:10233000012000FA02F241F823200C37BD465DF877
:10234000047B704700E100E080B483B000AF034637
:102350003960FB7197F90730002B0ADB0D4997F9BB
:1023600007303A68D2B29200D2B20B4483F800230D
:102370000AE00949FB7903F00F03043B3A68D2B243
:102380009200D2B20B441A760C37BD465DF8047B3E
:10239000704700BF00E100E000ED00E080B489B0CC
:1023A00000AFF860B9607A60FB6803F00703FB6177
:1023B000FB69C3F10703062B28BF0623BB61FB693A
:1023C0000633062B02D9FB69013B00E000237B6149
:1023D000BB69012202FA03F35A1EBB681A407B69EB
:1023E0009A407B69012101FA03F3591E7B680B4077
:1023F000134318462437BD465DF8047B704700BF81
:1024000080B483B000AF78600B46FB701346BB709E
:10241000F878FB787A6806339B0013445B6823F0F6
:102420000702BB781A437968831D9B000B445A60EE
:102430000C37BD465DF8047B704700BF80B483B0A5
:1024400000AF786039607B681A6C3B681A437B6820
:102450001A640C37BD465DF8047B704780B483B0C6
:1024600000AF78607B681B6C23F00F0343F002021F
:102470007B681A640C37BD465DF8047B704700BF6B
:1024800080B582B000AF0023FB71234B9B68002214
:102490001A76214B9B6800225A7620480421204A54
:1024A000FDF776FF1F482049FFF77CFA1D48002101
:1024B0000022FFF7A5FF1B48FFF7D0FF17480521B3
:1024C0001A4AFDF765FF174804210022FFF79CFC1C
:1024D000144808210122FFF797FC12484FF480416D
:1024E000FFF7ACFF0F4810210222FFF78DFCFFF72A
:1024F00001FF034618463F210022FFF74FFF034626
:102500005A201946FFF720FF5A20FFF701FFFB79F9
:1025100018460837BD4680BD0088FE1F008002486F
:1025200034F2000800000248E4F10008F0F100086D
:1025300080B500AF0148FFF757FE80BD0088FE1F41
:1025400080B483B000AF78600B46FB70FB7801224B
:102550009A407B68DA600C37BD465DF8047B7047B3
:1025600080B483B000AF78607B680122DA600C37FA
:10257000BD465DF8047B704780B483B000AF7860DF
:102580007B6802221A610C37BD465DF8047B7047F8
:1025900080B483B000AF78600B467B807A887B681C
:1025A0005A630C37BD465DF8047B704780B483B036
:1025B00000AF78600B467B807A887B68DA630C37E3
:1025C000BD465DF8047B704780B483B000AF78608F
:1025D00039607B683A681A610C37BD465DF8047B48
:1025E000704700BF80B483B000AF78600B46FB70CB
:1025F0007B68D3F8A420FB78012101FA03F31A4386
:102600007B68C3F8A4200C37BD465DF8047B704797
:1026100080B584B000AF78600023FB737B6893F8CB
:10262000263083F00103DBB2002B09D07B6893F8DE
:102630002130002B04D1786800F008F80346FB73C2
:10264000FB7B18461037BD4680BD00BF80B584B007
:1026500000AF78607B681B69184601F057FA0346A3
:10266000FB737B681B699A687B681B7E1046194662
:10267000FFF766FF7B685A697B68DB69104619467D
:10268000FEF76CFC786800F02DF87B6893F8253035
:10269000002B0FD07B685A697B6893F82030104676
:1026A00000211A46FEF790FC7B685B691846002102
:1026B000FFF798FF7B685B691846FFF75DFF7B6853
:1026C000012283F826207B6893F82430002B04D065
:1026D0007B685B691846FFF743FFFB7B18461037A2
:1026E000BD4680BD80B582B000AF78607B685A6916
:1026F0007B685B8C10461946FFF74AFF7B685B6975
:1027000018460021FFF752FF7B681B699A687B68B7
:10271000DB6810461946FFF757FF0837BD4680BDF6
:1027200080B400AF044BDB6803F4E0631B0A184677
:10273000BD465DF8047B704700ED00E080B483B0D7
:1027400000AF03463960FB7197F90730002B0ADBB5
:102750000D4997F907303A68D2B29200D2B20B44D1
:1027600083F800230AE00949FB7903F00F03043BD7
:102770003A68D2B29200D2B20B441A760C37BD46F8
:102780005DF8047B704700BF00E100E000ED00E071
:1027900080B489B000AFF860B9607A60FB6803F07C
:1027A0000703FB61FB69C3F10703062B28BF062360
:1027B000BB61FB690633062B02D9FB69013B00E0D4
:1027C00000237B61BB69012202FA03F35A1EBB6836
:1027D0001A407B699A407B69012101FA03F3591E73
:1027E0007B680B40134318462437BD465DF8047BD5
:1027F000704700BF80B582B000AF78607B68013B56
:10280000B3F1807F01D301230FE00A4A7B68013BCB
:1028100053604FF0FF303F21FFF790FF054B002240
:102820009A60044B07221A60002318460837BD46F9
:1028300080BD00BF10E000E090B486B000AF7860CB
:102840000023FB736B497A681346DB0013449B003B
:102850000B4418331B68BB60674B1B68002B09D106
:102860007A681346DB0013449B00624A1344624AB1
:102870001360BBE0604B1B687B61BB683B61ABE0F6
:102880007B699B691A463B699B1A3B613B69002B3C
:102890007ADC7B695B68002B26D07B6959687A6893
:1028A0001346DB0013449B00524A13440B607B69C0
:1028B000596850487A681346DB0013449B00034470
:1028C00059604C497A681346DB0013449B000B4463
:1028D0007A691A607A681346DB0013449B00454A04
:1028E0001A447B695A601CE0434B196841487A6876
:1028F0001346DB0013449B00034419603E4B1968E8
:102900007A681346DB0013449B003A4A13444B6039
:102910007A681346DB0013449B00364A1344364A58
:10292000136034497A681346DB0013449B000B4460
:102930001B689A693B69D1182E487A681346DB00F8
:1029400013449B000344183319602A497A681346DC
:10295000DB0013449B000B44196826487A68134631
:10296000DB0013449B0003441B689869214C7A6880
:102970001346DB0013449B00234418331B68C31A1F
:102980008B610123FB7324E03B69002B21DD7B6914
:102990001B68002B1DD117497A681346DB001344CE
:1029A0009B000B447A695A607A681346DB00134433
:1029B0009B00104A1A447B691A6039690D487A688D
:1029C0001346DB0013449B000344183319600123B2
:1029D000FB737B691B687B617B69002B06D0FB7BEB
:1029E00083F00103DBB2002B7FF44AAF1837BD46FA
:1029F00090BC7047C08BFE1FC089FE1F80B485B09D
:102A000000AF78607A681346DB0013449B00294AC4
:102A10001344FB60FB685B68002B07D1FB681B68F5
:102A2000002B03D1244B00221A603DE0FB685B6859
:102A3000002B14D1FB681B681F4A13601E4B1B68D8
:102A400000225A601C4B1B681B4A12689169FA6885
:102A500092690A449A61FB6800221A6024E0FB68CC
:102A60001B68002B07D1FB685B6800221A60FB68BB
:102A700000225A6018E0FB685B68FA6812681A6006
:102A8000FB681B68FA6852685A60FB681B68FA6842
:102A900012689169FA6892690A449A61FB68002297
:102AA0001A60FB6800225A601437BD465DF8047B4B
:102AB000704700BFC08BFE1FC089FE1F80B582B06B
:102AC00000AF2F4B1B687B6050E07B6893F8203091
:102AD000002B13D07B685B691846FFF78FFF7B687C
:102AE00000225A737B685B691A4601239340DA43DC
:102AF000244B1B681340234A136034E07B681B7B24
:102B0000002B12D17B685B7B012B2CD17B685B692E
:102B10001846FFF773FF7B6802225A737B689B6835
:102B20007A681269104698471DE07B681B7B012B71
:102B300018D17B685B7B012B15D17B685B691846DC
:102B4000FFF75CFF7B68DA697B689A617B685B6989
:102B50001846FFF771FE7B689B687A681269104619
:102B6000984700E009E0064B1B687B607B68002B00
:102B700003D07B689B69002BA7D00837BD4680BD7A
:102B8000C089FE1FC489FE1F80B582B000AF0E4B06
:102B90001B687B600D4B1B6801330C4A13607B681C
:102BA000002B0ED07B689B69012B05D97B689B6944
:102BB0005A1E7B689A6104E07B6800229A61FFF7E5
:102BC0007DFF0837BD4680BDC089FE1FC889FE1F36
:102BD00080B584B000AF78600023FB737B681B78FE
:102BE00083F00103DBB2002B20D0134B00221A60CC
:102BF0001248FFF7FFFD0346FB73FB7B012B15D04B
:102C0000FFF78EFD034618463F210022FFF7C0FD67
:102C100003464FF0FF301946FFF790FD084B0022A6
:102C20001A607B6801221A700023FB73FB7B184635
:102C30001037BD4680BD00BFC089FE1F8032020034
:102C4000C489FE1F80B400AF034B1B681846BD4605
:102C50005DF8047B704700BFC889FE1F80B485B053
:102C600000AFF8600B467A607B817989FB687A68EF
:102C7000203243F822101437BD465DF8047B7047BC
:102C800080B483B000AF78607B689B6BDBB223F0CD
:102C90007F03DBB218460C37BD465DF8047B7047F6
:102CA00080B483B000AF78607B681B6D03F4C043D1
:102CB00018460C37BD465DF8047B704780B485B07C
:102CC00000AFF8600B467A607B817989FB687A688F
:102CD000603243F822101437BD465DF8047B70471C
:102CE00080B483B000AF78607B684FF48042C3F853
:102CF00018210C37BD465DF8047B704780B483B063
:102D000000AF78607B68D3F8143103F00803002B20
:102D100014BF01230023DBB218460C37BD465DF813
:102D2000047B704780B483B000AF786039607B6803
:102D30003A68C3F818210C37BD465DF8047B70472C
:102D400080B485B000AFF860B9607A60FB685B69F9
:102D500023F05042BB681A437B681A43FB685A61F0
:102D60001437BD465DF8047B704700BF80B483B064
:102D700000AF78600B46FB707B681B6C23F00F0282
:102D8000FB781A437B681A640C37BD465DF8047BF8
:102D9000704700BF80B582B000AF786078680121CD
:102DA000FFF7E4FF0837BD4680BD00BF80B483B0A5
:102DB00000AF78600B46FB707B681B6C23F0C00291
:102DC000FB789B01DBB21A437B681A640C37BD4663
:102DD0005DF8047B704700BF80B483B000AF7860BB
:102DE00039607B68DA6C3B681A437B68DA640C37BD
:102DF000BD465DF8047B704780B483B000AF786057
:102E000039607B685B6923F4FE423B68013B9B02AF
:102E1000134343F480727B685A610C37BD465DF8FA
:102E2000047B704780B584B000AFF860B9607A6009
:102E3000F868B9687A68FFF783FF1037BD4680BD30
:102E400080B584B000AF78607B685B685B6898474A
:102E50000346FB73FB7B18461037BD4680BD00BFA1
:102E600080B584B000AF786039607B689B6893F868
:102E70002030DBB283F00103DBB2002B3FD07B6854
:102E80009B68DB7FDBB283F00103DBB2002B36D023
:102E90007B681B681846FEF74DFD0346FB73FB7B02
:102EA000002B2BD1786800F06FFB7B681B681846FD
:102EB0003968FEF707FD0346FB73FB7B002B09D146
:102EC0007B681A687B685B6893F8883010461946FF
:102ED000FFF792FF7B681A687B685B68D3F88030E5
:102EE000104619460022FFF79DFF7B681B681846B5
:102EF000FFF750FF786800F073FA02E001E0022368
:102F0000FB73FB7B18461037BD4680BD80B586B08D
:102F100000AFF860B9607A603B600223FB75FB6824
:102F20009B683B613B691B7FDBB2002B42D1BB68D6
:102F3000002B3BD07B68002B38D03B68002B35D072
:102F40003B69DB7FDBB283F00103DBB2002B2CD0CB
:102F50003B6993F82030DBB283F00103DBB2002B36
:102F600023D03B690122DA773B697A685A613B6971
:102F7000BA689A613B693A685A603B69002283F8F3
:102F800021203B69002283F82220FB685B6893F8CC
:102F90008530022B09D1F868396800F013F8034630
:102FA000FB753B690022DA7703E002E00323FB753F
:102FB00002E001E00123FB75FB7D18461837BD4692
:102FC00080BD00BF90B587B000AF78603960012345
:102FD0007B617B689B68FB6000237B82FB6800222F
:102FE0001A61FB6800229A607B689B681B68082B4B
:102FF00001D902237B617B69013B1A463B6803FAD6
:1030000002F2FB68DA607B681A68FB681B7FDBB240
:1030100010461946FFF7CAFE7B685B6893F87D305F
:10302000002B00F0D6807B681B681846FFF758FE1F
:103030007B681B68184600F0C5F9FB6893F82130DF
:10304000DBB2002B0BD07B681A68FB681B7FDBB2FE
:1030500010464FF6FF711A46FFF730FE1DE07B6900
:10306000022B07D1FB689A69FB689B6813441B8895
:103070007B8206E0FB689A69FB689B6813441B78B7
:103080007B827B681A68FB681B7FDBB21C467B8AED
:10309000104619462246FFF711FEFB689A687B69C5
:1030A0001A44FB689A6061E0FB6893F82130DBB258
:1030B000002B0BD07B681A68FB681B7FDBB21046C5
:1030C0004FF6FF711A46FFF7F9FD1DE07B69022BF1
:1030D00007D1FB689A69FB689B6813441B887B8255
:1030E00006E0FB689A69FB689B6813441B787B8247
:1030F0007B681A68FB681B7FDBB21C467B8A104624
:1031000019462246FFF7DAFD00BF7B681B681846A8
:10311000FFF7F4FD0346002BF7D17B681B681846C8
:10312000FEF7EEFB03467B82FB685A69FB681B696E
:1031300013447A8AD2B21A707B69022B0AD1FB68D7
:103140005A69FB681B69013313447A8A120A92B2E6
:10315000D2B21A70FB681A697B691A44FB681A615B
:10316000FB689A687B691A44FB689A60FB689A68F6
:10317000FB68DB689A4297D300BF7B681B681846E0
:10318000FFF7BCFD0346002BF7D17B681B68184690
:10319000FEF7B6FB03467B82FB685A69FB681B6936
:1031A00013447A8AD2B21A707B69022B0AD1FB6867
:1031B0005A69FB681B69013313447A8A120A92B276
:1031C000D2B21A707B681B6818460521FFF7AAFD6A
:1031D000E9E07B681B68184600F0F4F800BF7B68E4
:1031E0001B681846FFF74CFD0346802BF7D0FB68A1
:1031F00093F82130DBB2002B0BD07B681A68FB6898
:103200001B7FDBB210464FF6FF711A46FFF726FD13
:103210001DE07B69022B07D1FB689A69FB689B68FC
:1032200013441B887B8206E0FB689A69FB689B68F5
:1032300013441B787B827B681A68FB681B7FDBB2B8
:103240001C467B8A104619462246FFF707FDFB689D
:103250009A687B691A44FB689A6071E000BF7B68DA
:103260001B681846FFF70CFD0346802BF7D0FB6860
:1032700093F82130DBB2002B0BD07B681A68FB6817
:103280001B7FDBB210464FF6FF711A46FFF7E6FCD4
:103290001DE07B69022B07D1FB689A69FB689B687C
:1032A00013441B887B8206E0FB689A69FB689B6875
:1032B00013441B787B827B681A68FB681B7FDBB238
:1032C0001C467B8A104619462246FFF7C7FC00BF02
:1032D0007B681B681846FFF7E3FC0346002BF7D01A
:1032E0007B681B681846FEF70BFB03467B82FB6876
:1032F0005A69FB681B6913447A8AD2B21A707B69D7
:10330000022B0AD1FB685A69FB681B69013313441D
:103310007A8A120A92B2D2B21A70FB681A697B6971
:103320001A44FB681A61FB689A687B691A44FB6857
:103330009A607B681B6818464FF44041FFF74CFDCC
:10334000FB689A68FB68DB689A4287D300BF7B689A
:103350001B681846FFF7A4FC0346002BF7D07B68D8
:103360001B681846FEF7CCFA03467B82FB685A6955
:10337000FB681B6913447A8AD2B21A707B69022BEC
:103380000AD1FB685A69FB681B69013313447A8AC6
:10339000120A92B2D2B21A707B681B6818464FF4B8
:1033A0004041FFF719FDFB680022DA60FB6800224C
:1033B0001A61FB6800229A60002318461C37BD463C
:1033C00090BD00BF80B582B000AF78607868FEF72E
:1033D00097FA7868FEF794FA0837BD4680BD00BFBB
:1033E00080B584B000AF78600023FB601AE07B6892
:1033F0005B68FA680C3253F8223018687B685B68A7
:10340000FA680C3253F8223019797B685B68FA68E5
:10341000143253F822301B781A46FEF78DF9FB68F8
:103420000133FB607B685B6893F887301A46FB6862
:103430009A42DCD87B685B689B6A19687B685B682A
:103440009B6A1A797B685B68DB6A1B7808461146C1
:103450001A46FEF771F97B689B681B7FDBB2072B6E
:1034600000F28E8001A252F823F000BF8D340008D4
:103470008135000881350008813500088135000854
:103480008D340008B1340008F73400087B685B68AD
:103490009B6819687B685B689B681A797B685B68C6
:1034A000DB681B78084611461A46FEF745F968E0C6
:1034B0007B685B689B6819687B685B689B681A79A6
:1034C0007B685B68DB681B78084611461A46FEF786
:1034D00033F97B685B681B6919687B685B681B69EB
:1034E0001A797B685B685B691B78084611461A4647
:1034F000FEF722F945E07B685B689B6819687B688A
:103500005B689B681A797B685B68DB681B78084698
:1035100011461A46FEF710F97B685B681B6919684B
:103520007B685B681B691A797B685B685B691B78E1
:10353000084611461A46FEF7FFF87B685B689B69F0
:1035400019687B685B689B691A797B685B68DB69D3
:103550001B78084611461A46FEF7EEF87B685B6852
:103560001B6A19687B685B681B6A1A797B685B68F1
:103570005B6A1B78084611461A46FEF7DDF800E044
:1035800000BF1037BD4680BD80B584B000AF786005
:103590000023FB6015E07B685B68FA680C3253F827
:1035A000223019687B685B68FA680C3253F8223065
:1035B0001B79084619460022FEF7BEF8FB68013366
:1035C000FB607B685B6893F887301A46FB689A4219
:1035D000E1D87B685B689B6A1A687B685B689B6A5A
:1035E0001B79104619460022FEF7A6F87B689B68F7
:1035F0001B7FDBB2072B71D801A252F823F000BF6A
:1036000021360008DD360008DD360008DD3600080A
:10361000DD360008213600083D3600087336000804
:103620007B685B689B681A687B685B689B681B7932
:10363000104619460022FEF77FF850E07B685B6871
:103640009B681A687B685B689B681B791046194603
:103650000022FEF771F87B685B681B691A687B685B
:103660005B681B691B79104619460022FEF764F857
:1036700035E07B685B689B681A687B685B689B6861
:103680001B79104619460022FEF756F87B685B68E6
:103690001B691A687B685B681B691B7910461946B1
:1036A0000022FEF749F87B685B689B691A687B68B3
:1036B0005B689B691B79104619460022FEF73CF8AF
:1036C0007B685B681B6A1A687B685B681B6A1B798E
:1036D000104619460022FEF72FF800E000BF103711
:1036E000BD4680BD80B483B000AF78600B46FB70F0
:1036F0001346BB70F878FB787A6806339B00134456
:103700005B6823F00702BB781A437968831D9B002E
:103710000B445A600C37BD465DF8047B704700BF10
:1037200080B483B000AF78600B46FB707B685B6B46
:1037300023F07062FB78013B1B061A437B685A63D7
:103740000C37BD465DF8047B704700BF80B483B082
:1037500000AF78600B46FB707B685B6B23F47C12D8
:10376000FB78013B1B041A437B685A630C37BD4648
:103770005DF8047B704700BF80B485B000AFF8608F
:10378000B9607A60FB685B6923F05042BB681A43FA
:103790007B681A43FB685A611437BD465DF8047BA9
:1037A000704700BF80B483B000AF78600B46FB70F9
:1037B0007B681B6C23F00F02FB781A437B681A644A
:1037C0000C37BD465DF8047B704700BF80B582B002
:1037D00000AF786078680121FFF7E4FF0837BD4645
:1037E00080BD00BF80B483B000AF78607B685B6B46
:1037F00043F001027B685A630C37BD465DF8047BD9
:10380000704700BF80B483B000AF786039607B68D8
:103810005B6923F4FE423B68013B9B02134343F484
:1038200080727B685A610C37BD465DF8047B704737
:1038300080B584B000AFF860B9607A60F868B968A4
:103840007A68FFF799FF1037BD4680BD80B582B01A
:1038500000AF78600B46FB70FB7878681946FFF77D
:103860005FFF0837BD4680BD80B582B000AF78608D
:103870000B46FB70FB7878681946FFF767FF08373F
:10388000BD4680BD80B582B000AF78600B46FB704E
:103890001346BB70F878FB787A6806339B001344B4
:1038A0005B6823F0500343F010027968831D9B008E
:1038B0000B445A60FA78BB78786811461A46FFF7CD
:1038C00011FF0837BD4680BD80B582B000AF002330
:1038D000FB7123482349FDF7B5FF2148FFF782FF1D
:1038E0001F481021FFF7B2FF1D481021FFF7BCFF52
:1038F0001B484FF080410022FFF79AFF1848012132
:10390000FFF780FF18480521184AFCF741FD1448CD
:1039100000210322FFF7B6FF1148FFF757FF1448B5
:103920000021144AFCF734FD11480221124AFCF729
:103930002FFD0B4810210022FEF766FA08481021DF
:1039400004220123FEF70EFA0548002104220F236A
:10395000FEF730FAFB7918460837BD4680BD00BF38
:10396000004002485088FE1F00860248D089FE1F92
:10397000008502483C88FE1F58F2000880B400AF62
:10398000044BDB6803F4E0631B0A1846BD465DF890
:10399000047B704700ED00E080B483B000AF0346C5
:1039A000FB7197F90730002B0BDB084997F90730BB
:1039B0005B09FA7902F01F02012000FA02F241F8D5
:1039C00023200C37BD465DF8047B704700E100E022
:1039D00080B483B000AF03463960FB7197F90730BC
:1039E000002B0ADB0D4997F907303A68D2B29200F2
:1039F000D2B20B4483F800230AE00949FB7903F0B3
:103A00000F03043B3A68D2B29200D2B20B441A764A
:103A10000C37BD465DF8047B704700BF00E100E055
:103A200000ED00E080B489B000AFF860B9607A6062
:103A3000FB6803F00703FB61FB69C3F10703062B77
:103A400028BF0623BB61FB690633062B02D9FB693D
:103A5000013B00E000237B61BB69012202FA03F312
:103A60005A1EBB681A407B699A407B69012101FAA2
:103A700003F3591E7B680B40134318462437BD4699
:103A80005DF8047B704700BF80B582B000AF7860FE
:103A90007B681B785BB21846FFF77EFF0837BD4690
:103AA00080BD00BF90B583B000AF78607B681C78A4
:103AB000FFF764FF01467B685B781A467B689B785A
:103AC000084611461A46FFF7ADFF024663B2184694
:103AD0001146FFF77DFF7B68DB78002B02D078680A
:103AE000FFF7D2FF002318460C37BD4690BD00BF3C
:103AF00080B483B000AF78607B684FF48072DA6086
:103B00000C37BD465DF8047B704700BF80B582B0BE
:103B100000AF78607B685B7B83F00103DBB2002B36
:103B20000FD07B689A687B681B7B10461946FDF7AF
:103B3000F7F97B689B681846FFF7DAFF7B6801227C
:103B40005A73002318460837BD4680BD80B400AFC5
:103B5000044BDB6803F4E0631B0A1846BD465DF8BE
:103B6000047B704700ED00E080B483B000AF0346F3
:103B7000FB7197F90730002B0BDB084997F90730E9
:103B80005B09FA7902F01F02012000FA02F241F803
:103B900023200C37BD465DF8047B704700E100E050
:103BA00080B483B000AF0346FB7197F90730002B58
:103BB00010DB0B4997F907305B09FA7902F01F0215
:103BC000012000FA02F2203341F82320BFF34F8F87
:103BD000BFF36F8F0C37BD465DF8047B704700BFA5
:103BE00000E100E080B483B000AF0346FB7197F9B9
:103BF0000730002B0CDB094997F907305B09FA798C
:103C000002F01F02012000FA02F2603341F8232083
:103C10000C37BD465DF8047B704700BF00E100E053
:103C200080B483B000AF03463960FB7197F9073069
:103C3000002B0ADB0D4997F907303A68D2B292009F
:103C4000D2B20B4483F800230AE00949FB7903F060
:103C50000F03043B3A68D2B29200D2B20B441A76F8
:103C60000C37BD465DF8047B704700BF00E100E003
:103C700000ED00E080B489B000AFF860B9607A6010
:103C8000FB6803F00703FB61FB69C3F10703062B25
:103C900028BF0623BB61FB690633062B02D9FB69EB
:103CA000013B00E000237B61BB69012202FA03F3C0
:103CB0005A1EBB681A407B699A407B69012101FA50
:103CC00003F3591E7B680B40134318462437BD4647
:103CD0005DF8047B704700BF80B483B000AF7860AC
:103CE0003960044A3B6813600C37BD465DF8047BBD
:103CF000704700BF40400050B0B485B000AFF860DE
:103D0000C7E90023FB681968D7E900231C000025D8
:103D100023460B64FB681B683A685A641437BD4637
:103D2000B0BC704780B483B000AF78607B681B681C
:103D30007A681268526822F020025A600C37BD4639
:103D40005DF8047B704700BF80B483B000AF78603B
:103D50007B681B687A681268126822F480121A6005
:103D60000C37BD465DF8047B704700BF80B483B05C
:103D700000AF78600B467B8013463B807B681B68F6
:103D80007A681268126822F490417A8811433A885E
:103D90000A431A600C37BD465DF8047B704700BFCC
:103DA00080B483B000AF78607B681A697B6893F851
:103DB00027305B0113441B68DB0FDBB218460C375E
:103DC000BD465DF8047B704780B483B000AF786077
:103DD0007B685A697B6893F826305B0113441B6843
:103DE000DB0FDBB218460C37BD465DF8047B70472D
:103DF00080B483B000AF78607B6819687B681B680B
:103E000003F5805318331B6843F0020201F5805319
:103E100018331A607B681B687A681268126842F06F
:103E200004021A600C37BD465DF8047B704700BF82
:103E300080B483B000AF78607B681B687A681268D2
:103E4000126822F004021A607B6819687B681B689C
:103E500003F5805318331B6823F0020201F58053E9
:103E600018331A600C37BD465DF8047B704700BFFD
:103E700080B483B000AF78607B6819687B681B688A
:103E800003F5805318331B6843F4005201F5805347
:103E900018331A607B681B687A681268126842F0EF
:103EA00008021A600C37BD465DF8047B704700BFFE
:103EB00080B483B000AF78607B681B687A68126852
:103EC000126822F008021A607B6819687B681B6818
:103ED00003F5805318331B6823F4005201F5805317
:103EE00018331A600C37BD465DF8047B704700BF7D
:103EF00080B483B000AF78607B681B6803F58053A3
:103F0000143302221A607B681B6803F58053043364
:103F100000221A600C37BD465DF8047B704700BF75
:103F200080B483B000AF78607B681B6803F5805372
:103F3000143380221A607B681B6803F580530833B2
:103F400000221A600C37BD465DF8047B704700BF45
:103F500080B483B000AF78607B685A697B6893F85F
:103F600026305B0113449B6818460C37BD465DF84C
:103F7000047B704780B483B000AF78607B681A69B7
:103F80007B6893F827305B0113449B6818460C3715
:103F9000BD465DF8047B704780B483B000AF7860A5
:103FA00039607B685A697B6893F826305B0113445B
:103FB0003A685A600C37BD465DF8047B704700BF15
:103FC00080B586B000AF786000237B617B6893F892
:103FD0002D3003F00403002B4FD03148002108F0AE
:103FE0003BF90346FB747B6901337B61FB7C83F007
:103FF0000103DBB2002B03D07B692A4A9342ECD940
:10400000FB7C83F00103DBB2002B02D0042000F024
:104010007FFA2348002108F0E7F803463B82204856
:10402000002108F0FDF80346FB813A8AFB891C4811
:1040300011461A46FFF79AFE19484021FDF784FA07
:10404000FFF784FD034618463E210022FFF712FECB
:1040500003466C201946FFF7E3FD6C20FFF7C2FD15
:104060006C20FFF781FD0E48FFF702FF0C48FFF7B9
:10407000BFFE0D4802F07AFA0FE009484021FDF733
:104080009BFA6C20FFF78CFD0548FFF711FF0448F1
:10409000FFF7CEFE044802F0B9FA1837BD4680BDDE
:1040A000A088FE1FFEFF0F00D088FE1F80B582B0E3
:1040B00000AF78601248002108F07CF80346002B1E
:1040C0000AD1104B93F82D3003F00403002B0DD0D0
:1040D0000C4802F0E9FA09E00A4B93F82D3003F09E
:1040E0000403002B02D1074802F0B6FA4FF47A70AD
:1040F0000549002207F0A2FB0837BD4680BD00BF7E
:10410000A088FE1FD088FE1FAD40000880B588B093
:1041100000AF78604FF480333B6100233B7307F1BD
:104120000C034F4809211A46FCF732F907F10C033A
:104130004C4804211A46FCF72BF907F10C034948B7
:1041400002211A46FCF724F907F10C034548032124
:104150001A46FCF71DF907F10C03414808211A46DD
:10416000FCF716F907F10C033E4800211A46FCF74C
:104170000FF901233B7588233B7307F10C03394882
:1041800007211A46FCF704F9364800210122FDF701
:1041900013FBFB7E43F00403FB763B7E6FF30103CE
:1041A0003B763B7E6FF383033B767B7E022262F39A
:1041B00001037B767B7E022262F383037B767B7E28
:1041C0006FF387137B76BB7E012262F38713BB7686
:1041D0002548B969FFF780FD2348FDF72DF92248EE
:1041E000FDF7DAF820480021204A07F063FFF86164
:1041F000FB69002B04D0FB69DBB2184600F088F99C
:104200001948FCF79DFF184BD3E902231648FFF726
:1042100073FD1548FFF798FD1348FFF783FD012351
:104220003B7588233B7307F10C030E4805211A46A2
:10423000FCF7AEF888233B7307F10C03094808210B
:104240001A46FCF7A5F888233B7307F10C030548D1
:1042500009211A46FCF79CF82037BD4680BD00BFF7
:10426000008F024800820248A088FE1F00F3000869
:1042700080B586B000AF7860396000233B613B6851
:104280001B8940F2F452934201D9FE233CE000BF67
:104290002048FFF799FD0346002BF9D11D48FFF791
:1042A00057FEF86038686FF0010102F0B3FC3B681C
:1042B0007B6117E07B695A687B695B89F868114606
:1042C0001A4600F037F97B695B891A463B6913444B
:1042D0003B617B695B891A46FB681344FB607B6921
:1042E0001B687B617B69002BE4D13868022102F0F6
:1042F00091FC08483969FFF74FFE0648FDF7E2F9DF
:104300000448FFF7F5FD00235BB218461837BD4699
:1043100080BD00BFA088FE1F80B584B000AF002321
:10432000FB602F48FFF73CFD034683F00103DBB23F
:10433000002B4CD02A48FCF7F7FF78607B68002BF5
:1043400042D07B6840F2F45293423DD87B680233FE
:104350007B607B689BB2002019464FF4C17202F06B
:1043600061FAF860FB68002B2DD0F8686FF001014E
:1043700002F050FC1A48FFF7FDFD386000237B6017
:10438000FB68BB6014E0BB6859683A687B681A44F4
:10439000BB685B89084611461A4600F0CBF8BB683B
:1043A0005B891A467B6813447B60BB681B68BB60F3
:1043B000BB68002BE7D1F868022102F02BFC08480B
:1043C000FDF750F903E002E00548FDF74BF904481A
:1043D000FFF7A6FDFB6818461037BD4680BD00BF3D
:1043E000A088FE1F80B586B000AF786000237B6197
:1043F0007B683B616C20FFF7D3FBFFF78DFF786193
:1044000024E07B695B68FB60FB68DB899BB2184634
:1044100001F094FB0346B3F5006F03D040F60602AB
:1044200093420CD13B691B69786939699847034607
:10443000002B03D0786902F011FC04E003E07869F6
:1044400002F00CFC00BFFFF767FF78617B69002B6F
:10445000D7D16C20FFF7C6FB6C20FFF785FB183720
:10446000BD4680BD80B582B000AF78607B686522B4
:1044700083F82E207B686E2283F82F207B68144AF5
:104480005A617B68134A9A617B6840F2DC529A84D5
:104490007868FFF73BFE104B082283F82D200E4B67
:1044A00093F82D3043F00203DAB20B4B83F82D2042
:1044B0004FF47A700949002207F0C0F9786808497A
:1044C00002F016F900235BB218460837BD4680BDDE
:1044D0008D4E000871420008D088FE1FAD400008D4
:1044E000C13F000880B400AFBD465DF8047B704753
:1044F00080B500AF04484021FDF784F80348FFF77A
:1045000071FFFFF7EFFF80BDA088FE1FD088FE1F60
:1045100080B483B000AF0346FB71FB79032B04D05A
:10452000042B03D0022B02D002E002E001E000E005
:1045300000BFFEE7130911D051F804CB40F804CBBB
:1045400051F804CB40F804CB51F804CB40F804CB2D
:1045500051F804CB40F804CB013BEDD112F00F032E
:1045600005D011F801CB00F801CB013BF9D1704720
:10457000184600BF80B500AFFEF764FB034618463F
:1045800080BD00BF80B586B000AF78603960102371
:10459000FB827B685B89102B00D873E07B68DB7B38
:1045A000002B06D13B6893F830300133DAB27B68D8
:1045B000DA737B685B683B613B699A7BDB7B1B0240
:1045C0001343FB813B699B7803F00103002B24D04C
:1045D0003B699B78012B0FD13B69DB78002B1CD109
:1045E0003B691B795E2B18D17B685B7B43F0100322
:1045F000DAB27B685A7310E03B69023318462649E9
:10460000062209F09BFE0346002B06D17B685B7BEC
:1046100043F00803DAB27B685A73FB89082B03D096
:10462000B3F5C16F16D02DE03B6893F82D3003F041
:104630000803002B00D125E0FB8A7868194602F0B8
:104640008DFA0346002B00D01CE07868396801F031
:104650005FF815E03B6893F82D3003F00803002B5A
:1046600000D10FE0FB8A7868194602F077FA03461A
:10467000002B00D006E07868396800F001FB00BF2D
:10468000002303E0786802F0E9FA00235BB21846E1
:104690001837BD4680BD00BF08F3000880B586B05E
:1046A00000AFF860B9607A603B603B8C184601F05F
:1046B00045FA0346FB82B868102102F03FFA034630
:1046C000002B02D000BFFE2319E0BB685B683B6192
:1046D0003B69FA8ADA813B69023318463968062257
:1046E000FFF728FF3B690833184679680622FFF771
:1046F00021FFFB689B69F868B968984703465BB27D
:1047000018461837BD4680BD80B582B000AF7860CE
:1047100015497A6813465B001344DB000B441B68A1
:10472000002B13D010497A6813465B001344DB005A
:104730000B441B68184602F091FA0B497A6813463D
:104740005B001344DB000B4400221A6006497A68C0
:1047500013465B001344DB000B44103300221A7134
:104760000837BD4680BD00BFE489FE1F80B582B01A
:1047700000AF00237B6097E04F497A6813465B00E7
:104780001344DB000B4410331B79FB70FB78002BC8
:1047900000F0878048497A6813465B001344DB00C9
:1047A0000B4410335B88013398B243497A6813464F
:1047B0005B001344DB000B44103302465A803E4931
:1047C0007A6813465B001344DB000B4410335B88AC
:1047D000B3F5967F15D238497A6813465B001344C7
:1047E000DB000B4410331B79012B0ED132497A6860
:1047F00013465B001344DB000B4410335B88042B2F
:1048000003D97868FFF780FF4BE02B497A6813469D
:104810005B001344DB000B4410331B79032B0AD1DC
:1048200025497A6813465B001344DB000B441033C0
:1048300004221A7135E020497A6813465B0013445C
:10484000DB000B4410331B79042B0AD11A497A6818
:1048500013465B001344DB000B44103302221A7131
:104860001FE015497A6813465B001344DB000B44D4
:1048700010331B79012B14D10F497A6813465B0062
:104880001344DB000B44083319687A6813465B0055
:104890001344DB00084A134404330846194600F069
:1048A00043FD7B6801337B607B68092B7FF764AF36
:1048B0000837BD4680BD00BFE489FE1F80B58AB0C1
:1048C00000AFF8600B467A60FB720A23FB840A2370
:1048D000BB840A237B8400233B840A23FB830023BD
:1048E000BB8300237B8300233B8300233B849FE027
:1048F000B7F92020804913465B001344DB000B44CA
:1049000010331B79FB75B7F922300A2B05D1FB7DDB
:10491000002B02D13B8C7B8486E0FB7D002B00F0DA
:104920008380FB68002B1ED0FB681968B7F9202034
:10493000714813465B001344DB0003445B689942F3
:1049400011D17B68002B0CD0B7F920206A4913469F
:104950005B001344DB000B4408331A687B689A42FF
:1049600001D13B8CC3E0FB7D012B40D1B7F9202066
:10497000614913465B001344DB000B441B68002BAA
:104980001AD0B7F920205C4913465B001344DB00C2
:104990000B4410335B88BA8B9A4245D83B8CFB831F
:1049A000B7F92020544913465B001344DB000B4445
:1049B00010335B88BB8337E0B7F920204E4913469C
:1049C0005B001344DB000B4410335B887A8B9A4204
:1049D0002AD83B8CFB84B7F92020474913465B005B
:1049E0001344DB000B4410335B887B831CE0FB7DAE
:1049F000012B19D9B7F920203F4913465B00134416
:104A0000DB000B4410335B883A8B9A420CD83B8C0A
:104A1000BB84B7F92020384913465B001344DB0000
:104A20000B4410335B883B833B8C01339BB23B844C
:104A3000B7F92030092B7FF75BAFFB7A03F0020355
:104A4000002B08D1B7F922300A2B07D1FB7A03F0EB
:104A50000103002B02D14FF6FF7348E0B7F9223073
:104A6000092B02DC7B8C3B841CE0B7F92430092B3A
:104A700002DCBB8C3B8410E0B7F92630092B02DC4A
:104A8000FB8C3B8409E0B7F91E30092B02DCFB8B61
:104A90003B8402E04FF6FF7329E0B7F92030184657
:104AA000FFF732FEFB68002B0AD0B7F92020FB6825
:104AB0001968114813465B001344DB000344596036
:104AC000B7F920200C4913465B001344DB000B446C
:104AD000103300225A80B7F92020074913465B00A3
:104AE0001344DB000B4408337A681A603B8C1BB21A
:104AF00018462837BD4680BDE489FE1F80B588B0C2
:104B000002AFF860B9607A60FB70BB68002B12D00E
:104B1000BB681B68002B0ED0BB681B681846F96881
:104B200000F0CAFF0346002B05D1BB681B6803F0E9
:104B3000F003E02B01D1F0236CE0FB78B868194654
:104B4000FA68FFF7BBFE0346FB82B7F91630002B6D
:104B500002DAFB8ADBB25DE0B7F916203049134672
:104B60005B001344DB000B44103302221A71B7F9C7
:104B700016202B4913465B001344DB000B4408331B
:104B8000FA681A60B7F9162013465B001344DB007D
:104B90000833234A134404337A68116819609288F1
:104BA0009A80B7F916201E4913465B001344DB00B8
:104BB0000B44103300225A80B7F9162018491346C7
:104BC0005B001344DB000B441B68002B21D0B7F9BA
:104BD0001620134913465B001344DB000B441B688B
:104BE0003B61B7F916200E4913465B001344DB0006
:104BF0000B4400221A60FB6803F126024FF40063A5
:104C00000093F86839697B68FFF748FD386902F05E
:104C100025F800235BB218461837BD4680BD00BF9B
:104C2000E489FE1F80B584B000AF78600023FB608C
:104C30001EE01249FA6813465B001344DB000B4484
:104C400010331B79FB72FB7A002B0ED00B49FA68EC
:104C500013465B001344DB000B4408331A687B687F
:104C60009A4202D1F868FFF74FFDFB680133FB6001
:104C7000FB68092BDDDD1037BD4680BDE489FE1FD2
:104C8000B0B58AB004AF786039603B68002B00D1C2
:104C900076E07B685B683B613B691B889BB2B3F540
:104CA000807F0CD13B691B79062B08D13B695B796E
:104CB000042B04D13B695B889BB2082B03D0786836
:104CC00001F0CCFF5CE03B690E3307F10C021046AB
:104CD00019460422FFF72EFC3B69183307F108023E
:104CE000104619460422FFF725FC3B6804331B6875
:104CF000002B02D10023FB7509E0BA683B6804333E
:104D00001B689A420CBF01230023DBB2FB753B6991
:104D100003F10802FB7D002B01D0012300E00223F8
:104D200007F10C013868FFF7E9FE3B69DB889BB2AD
:104D3000B3F5807F03D0B3F5007F1DD01DE0FB7D70
:104D4000002B18D03B6803F126013B6903F10805ED
:104D50003B6803F126043B681A1D3B690833009247
:104D6000019307F10C0302930223039338682A4648
:104D7000234600F053FA00E000BF786801F06EFFB0
:104D80001837BD46B0BD00BFB0B586B002AFF86001
:104D9000B9601346FB71FA793B4913465B00134433
:104DA000DB000B4410331B79022B53D1FA793649BF
:104DB00013465B001344DB000B4410335B88B3F5F0
:104DC0008E7F19D9FA7913465B001344DB002E4A13
:104DD00013440433F868194600F0A6FA0346002B82
:104DE00038D1FA79284913465B001344DB000B44A1
:104DF000103303221A712DE0FA79234913465B0020
:104E00001344DB000B4410335B88B3F5877F21D359
:104E1000FA7913465B001344DB001B4A1344191D47
:104E2000FA7913465B001344DB000833164A134437
:104E30000433F8681A4600F055FA0346002B09D1EE
:104E4000FA79114913465B001344DB000B4410331D
:104E500003221A71FB6803F12605FA7913465B00F9
:104E60001344DB000833084A13441C1D4FF400634D
:104E70000093F868B9682A462346FFF70FFC0346FB
:104E800018461037BD46B0BDE489FE1F80B58AB014
:104E900002AFF860B9607A607B68BB617B681B68B1
:104EA0001846F96800F008FE0346002B02D0604B5C
:104EB000FB61ACE07B681B6803F0F003E02B18D1CA
:104EC00001233B7400237B745E23BB747B68013336
:104ED0001B7803F07F03DBB2FB747B6802331B7823
:104EE0003B757B6803331B787B7507F11003FB610F
:104EF0008DE07B681A68FB6804331B685A40FB68C6
:104F000008331B681340002B11D07B681B689BB2D1
:104F10004FF6A96293420AD0FB680C331B68002B42
:104F200003D0FB680C33BB6101E0FC237BE0414B09
:104F30001B781946404A0B465B000B44DB001344C8
:104F400010331B79012B24D93A4B1B7819463A4A66
:104F50000B465B000B44DB00134408331A68FB6804
:104F60009A4216D1BB691A68324B1B7818463249EF
:104F700003465B000344DB000B445B689A4208D1A4
:104F80002C4B1B78F868B9681A46FFF7FDFE0346FC
:104F900049E00023FB7530E0FA7D274913465B00AA
:104FA0001344DB000B4410331B79012B22D9FA7D0B
:104FB000214913465B001344DB000B4408331A6895
:104FC000FB689A4216D1BB691968FA7D1A481346E4
:104FD0005B001344DB0003445B6899420AD1154A25
:104FE000FB7D1370FB7DF868B9681A46FFF7CCFEAD
:104FF000034618E0FB7D0133FB75FB7D092BCBD904
:10500000F868B969BA6800F019F803460BE0FB6864
:1050100003F126024FF400630093F868B968FB6956
:10502000FFF73CFB03465BB218462037BD4680BD08
:1050300008F30008D48AFE1FE489FE1F90B58DB0E6
:1050400002AFF860B9607A60FB6826337B61FF23AA
:1050500087F8273000233B62BB681B681846F96855
:1050600000F02AFD0346002B0CD1BB681B6803F03F
:10507000F003E02B06D0BB68002B03D0BB681B6895
:10508000002B01D1F023C0E0B8680121FA68FFF7D6
:1050900015FC03467B82B7F91230002B02DA7B8ABB
:1050A000DBB2B2E07B8A7B747A7C5A4913465B00A0
:1050B0001344DB000B4410331B79002B15D1012363
:1050C0003B627A7C534913465B001344DB000B447C
:1050D000103301221A717A7C4E4913465B00134447
:1050E000DB000B440833FA681A603B6A002B02D1DC
:1050F0007B68002B0CD1F868B96800F015F90346FD
:1051000087F827307B68002B02D197F827307CE0A6
:105110007A7C404913465B001344DB000B44103398
:105120001B79012B18D93C4A7B7C13707A7C13467F
:105130005B001344DB000833364A13441C1D4FF454
:1051400000630093F86879687A692346FFF7A6FA46
:10515000034687F8273056E07A7C2E4913465B00D9
:105160001344DB000B4410331B79012B4BD100237C
:10517000BB617B68FB610BE0FB691B7B03F04003B9
:10518000002B02D00123BB6105E0FB691B68FB61BA
:10519000FB69002BF0D1BB69002B07D010204FF426
:1051A00020717A6801F0F0FEF86104E07B68FB6131
:1051B000F86901F0B1FDFB69002B21D07A7C15491B
:1051C00013465B001344DB000B441B68002B0AD022
:1051D0007A7C104913465B001344DB000B441B68C8
:1051E000184601F03BFD7A7C0A4913465B001344E4
:1051F000DB000B44FA691A60002387F8273002E0CD
:10520000FF2387F8273097F827305BB218462C37F2
:10521000BD4690BDE489FE1FD48AFE1F80B58AB0CA
:1052200002AFF860B9607A603B600023FB77102022
:105230001C214FF4207201F0F5FAB861BB69002B14
:1052400001D1FF2349E0BB695B687B61BB8E1846D7
:1052500000F074FC03461A467B69DA807B690833E8
:10526000184639680622FFF765F97B69123318463C
:10527000F96A0622FFF75EF97B690E331846B96AB0
:105280000422FFF757F97B6918331846396B04225B
:10529000FFF750F97B6900221A70002242F00102E8
:1052A0005A707B69002242F008029A700022DA707C
:1052B0007B6906221A717B6904225A7140F6060343
:1052C0000093F868B969BA687B68FFF7E7F9B869CD
:1052D00001F0C4FC0023BB61FB7F5BB218462037A2
:1052E000BD4680BD90B589B004AFF860B9607A6002
:1052F000FB6803F12602FB6803F12604FB68043314
:105300000093084B0193BB68029301230393F86851
:1053100011467A682346FFF781FF03461846143783
:10532000BD4690BD10F3000880B582B000AF786034
:10533000396078683968044AFFF7D4FF0346184695
:105340000837BD4680BD00BF08F3000880B58EB0A9
:1053500004AF786039606D4B9B687B627B6A1B7819
:1053600003F00F03DBB29B00DBB27B847B8C132B3F
:1053700000D8BFE07B685B89032B00D8BAE07B686C
:105380005B681B7887F8213097F82130002B00F0FC
:10539000AC80082B00D0A9E05D4BFB615B4B5B69E7
:1053A00003F0F003E02B00D1A8E0584B5A69574BAB
:1053B0001B681046194600F07FFB0346002B00D007
:1053C0009CE07B681B89072B00D893E07B8C103313
:1053D0007868194601F0B2FB0346002B46D07B6883
:1053E0001A897B8C13447B837B681B897A8B9A4256
:1053F00000D283E07B8B102019464FF4207201F01D
:1054000011FA78617B69002B00D177E07B695B89B9
:105410001A467B8C08339A4203D2786901F01EFC4D
:105420006CE07B695A687B8C1046796A1A46FFF7F4
:1054300081F87B8C7869194601F090FB0346002BBC
:1054400003D0786901F00AFC58E07869796801F0C6
:10545000B3FC0346002B03D0786901F0FFFB4DE05D
:10546000786801F0FBFB7B697B6009E07B8C103383
:105470007868194601F072FB0346002B00D03DE02E
:105480007B685B683B617B8C7868194601F056FB52
:105490000346002B28D17B685B68FB60FB691A68B8
:1054A000FB68DA60194B1A69FB681A613B690022D4
:1054B0001A703B6900229A700022DA70FB68FF22A2
:1054C0001A72FB6800229A720022DA72002300939B
:1054D000012301933B6802937868F9690022FF2356
:1054E00000F042FA0346FB7200E000BF786801F06A
:1054F000B5FB07E0786801F0B1FB03E0786801F0E4
:10550000ADFB00BF2837BD4680BD00BFE08CFE1F4D
:10551000F48CFE1F80B582B000AF78600B46FB7044
:10552000FB78786803211A4600F004F80837BD4676
:1055300080BD00BF80B58CB004AF78600B46FB70B7
:105540001346BB70242024214FF4207201F06AF925
:10555000F861FB69002B41D07B685B68BB61FB692C
:105560005B687B617B69FA781A707B69BA785A70DC
:105570007B6900221A7100225A717B6900229A719C
:105580000022DA71FB695B6803F108027B685B68E3
:10559000104619461C22FEF7CDFFBB69DB68FB6095
:1055A00007F10C03184600F01DF838613B69002B29
:1055B00011D07B6900229A700022DA7007F10C0288
:1055C00000230093012301933B690293F8690021B2
:1055D000FF2300F0C9F9F86901F040FB2037BD4610
:1055E00080BD00BF80B485B000AF7860314B1B68D0
:1055F000FB6033E0FB6893F82D3003F00103002BD0
:1056000029D0FB6893F82D3003F00403002B22D03F
:10561000FB6804331B68002B1DD07B681A68FB688D
:1056200004331B685A40FB6808331B681340002B87
:1056300001D1FB6838E0FB6893F82D3003F00203DA
:10564000002B08D17B681A68FB680C331B689A42F0
:1056500001D1FB6828E0FB681B68FB60FB68002B3E
:10566000C8D1154B1B68002B1AD0134B1B6893F83D
:105670002D3003F00103002B12D00F4B1B6893F861
:105680002D3003F00403002B0AD00B4B1B680433AE
:105690001B68002B04D07B681B68DBB27F2B01D119
:1056A000002301E0044B1B6818461437BD465DF823
:1056B000047B704728FBFE1F2CFBFE1F80B582B0C9
:1056C00000AF78607B6893F82D3003F00103002B66
:1056D00016D07B6804331B68002B11D00B4B5A6922
:1056E0007B6804331B689A4208D0084B5B691846F4
:1056F000796800F0E1F90346002B01D0012300E0B6
:10570000002318460837BD4680BD00BFE08CFE1F51
:1057100080B586B000AF786039607B685B683B61BC
:105720003B691B781B09DBB2042B04D0786801F0BD
:1057300095FA00230FE13B691B7803F00F03DBB2FE
:105740009B00DBB2FB813B695B889BB2184600F093
:10575000F5F90346BB817B681B89BA899A4204D25A
:10576000BB897868194601F033F97B685B89FA894F
:105770009A4207D87B681B89BA899A4202D8FB896A
:10578000132B04D8786801F069FA0023E3E03B6941
:105790001B69734A53613B69DB68714A1361704B43
:1057A0005B6903F0F003E02B11D13B6893F82D30D7
:1057B00003F00103002B07D03B6804331B68002B68
:1057C00002D03B687B6128E000237B6125E03868DC
:1057D000FFF774FF0346002B02D03B687B611CE09F
:1057E00000237B615E4B5B69DBB27F2B15D05D4B89
:1057F0001B687B610EE07A693B689A4200D106E043
:105800007869FFF75BFF0346002B00D005E07B695A
:105810001B687B617B69002BEDD1514B1B691846DE
:10582000396800F049F90346002B05D14C4B1B6940
:1058300003F0F003E02B04D1786801F00FFA0023A5
:1058400089E07B69002B04D1786801F007FA002316
:1058500081E03B69DB889BB21A464FF63F731340E9
:10586000002B04D0786801F0F9F9002373E0FB897C
:10587000142B04D9786801F0F1F900236BE0384A61
:105880007B691360364A3B685360354A3B699360D5
:105890003B691B7803F00F03DBB29B00DBB29AB2CB
:1058A0002F4B9A817868396801F0CAFB0346FB7276
:1058B000FB7A012B3CD0FB897868194601F04EF940
:1058C0003B695B7A062B09D0112B02D0012B0AD041
:1058D0000EE07868396806F09BF829E07868396846
:1058E00002F0C8FD24E078683968FFF72FFD1FE05B
:1058F000FB7A022B18D01A4B5B691846796900F0C5
:10590000DBF80346002B0FD1154B5B6903F0F00366
:10591000E02B09D0FB891BB27868194601F08CF99D
:1059200078680221FFF7F6FD786801F097F900BF6B
:105930000B4B00221A600A4B00225A60084B0022CF
:105940009A60074B00229A81054B00221A61044B92
:1059500000225A6100235BB218461837BD4680BD4D
:10596000E08CFE1F28FBFE1F90B58BB004AFF860E3
:10597000B9607A60FB70BB687B617B68002B09D0E3
:10598000BB68002B03D0BB681B68002B02D13B6BAC
:1059900004337B61FC7897F82830009397F82C301B
:1059A00001933B6B0293F86879697A68234600F0AB
:1059B00005F8034618461C37BD4690BD80B588B033
:1059C00000AFF860B9607A60FB707B68002B54D040
:1059D0001423FB83F868142101F0B0F80346002B70
:1059E00001D0FE235FE0FB685B68BB61BB69FA78AE
:1059F0001A72BB6997F82C205A727B681A68BB69C7
:105A00001A61FB8B9B089BB2DBB243F04003DAB216
:105A1000BB691A70BB6997F828205A70FB681B890C
:105A2000184600F08BF803461A46BB695A80BB69DA
:105A300000229A710022DA711D4B1B88184600F073
:105A40007DF803461A46BB699A80194B1B880133BF
:105A50009AB2174B1A80BB68002B04D1154B1A68F9
:105A6000BB69DA6003E0BB681A68BB69DA60BB69CE
:105A700000229A720022DA720EE0FB685B89132B17
:105A800001D8FE230FE0FB685B68BB61BB691B6943
:105A90007B6107F114037B603B6B5B69386BF968D2
:105AA0007A68984703465BB218462037BD4680BDEA
:105AB000D68AFE1F18F3000880B485B000AF786066
:105AC00039607B68FB607B68B3F1FF3F02D07B6885
:105AD000002B01D101232AE03B6893F82D3003F01D
